:020000040800F2
:1000000000000220FD4200087D3A0008813A000805
:10001000853A0008893A00088D3A0008000000007F
:10002000000000000000000000000000913A0008FD
:10003000953A000800000000993A00089D3A00082F
:100040004D4300084D4300084D4300084D43000850
:100050004D4300084D4300084D4300084D43000840
:100060004D4300084D4300084D4300084D43000830
:100070004D4300084D4300084D4300084D43000820
:100080004D4300084D430008A13A00084D430008C5
:100090004D4300084D4300084D4300084D43000800
:1000A0004D4300084D4300084D4300084D430008F0
:1000B0004D4300084D4300084D4300084D430008E0
:1000C0004D4300084D4300084D4300084D430008D0
:1000D0004D430008AD3A00084D4300084D43000869
:1000E0004D4300084D4300084D4300084D430008B0
:1000F0004D4300084D4300084D4300084D430008A0
:100100004D4300084D4300084D4300084D4300088F
:100110004D4300084D4300084D4300084D4300087F
:10012000B93A000859330008C53A000839310008C7
:10013000113000084D4300084D4300084D430008AE
:100140004D4300084D4300084D4300084D4300084F
:10015000FD2E000845320008D13A00084D43000842
:100160004D4300084D4300084D4300084D4300082F
:100170004D4300084D4300084D43000800000000B7
:080180004D4300084D43000847
:1001900010B5054C237833B9044B13B10448AFF3C1
:1001A00000800123237010BDF0010020000000003A
:1001B0005CAF000808B5034B1BB103490348AFF31C
:1001C000008008BD00000000F40100205CAF0008C2
:1001D00001F0FF01102A2BDB10F0070F08D010F8F8
:1001E000013B013A8B422DD010F0070F42B3F6D1FC
:1001F000F0B441EA012141EA014122F007047FF015
:1002000000070023F0E80256083C85EA010586EA6B
:10021000010685FA47F5A3FA87F586FA47F6A5FAA7
:1002200087F68EB9EED1F0BC01F0FF0102F00702B3
:1002300032B110F8013B013A83EA010313B1F8D15E
:100240000020704701387047002D06BF354603383F
:10025000073815F0010F07D1013015F4807F02BF78
:10026000013015F4C03F0130F0BC0138704700BFC9
:10027000034613F8012B002AFBD1181A01387047E6
:1002800081F0004102E000BF83F0004330B54FEA47
:1002900041044FEA430594EA050F08BF90EA020FB4
:1002A0001FBF54EA000C55EA020C7FEA645C7FEA47
:1002B000655C00F0E2804FEA5454D4EB5555B8BF6A
:1002C0006D420CDD2C4480EA020281EA030382EADB
:1002D000000083EA010180EA020281EA0303362D6D
:1002E00088BF30BD11F0004F4FEA01314FF4801C40
:1002F0004CEA113102D0404261EB410113F0004F52
:100300004FEA03334CEA133302D0524263EB430308
:1003100094EA050F00F0A780A4F10104D5F1200EA6
:100320000DDB02FA0EFC22FA05F2801841F1000101
:1003300003FA0EF2801843FA05F359410EE0A5F1D5
:1003400020050EF1200E012A03FA0EFC28BF4CF006
:10035000020C43FA05F3C01851EBE37101F00045BC
:1003600007D54FF0000EDCF1000C7EEB00006EEBC9
:100370000101B1F5801F1BD3B1F5001F0CD3490853
:100380005FEA30004FEA3C0C04F101044FEA4452AA
:1003900012F5800F80F09A80BCF1004F08BF5FEA31
:1003A000500C50F1000041EB045141EA050130BD11
:1003B0005FEA4C0C404141EB0101013C28BFB1F523
:1003C000801FE9D291F0000F04BF01460020B1FA6E
:1003D00081F308BF2033A3F10B03B3F120020CDA41
:1003E0000C3208DD02F1140CC2F10C0201FA0CF01F
:1003F00021FA02F10CE002F11402D8BFC2F1200C84
:1004000001FA02F120FA0CFCDCBF41EA0C01904039
:10041000E41AA2BF01EB0451294330BD6FEA040482
:100420001F3C1CDA0C340EDC04F11404C4F120026D
:1004300020FA04F001FA02F340EA030021FA04F37F
:1004400045EA030130BDC4F10C04C4F1200220FAD6
:1004500002F001FA04F340EA0300294630BD21FA14
:1004600004F0294630BD94F0000F83F4801306BFDA
:1004700081F480110134013D4EE77FEA645C18BFCE
:100480007FEA655C29D094EA050F08BF90EA020F65
:1004900005D054EA000C04BF1946104630BD91EA5D
:1004A000030F1EBF0021002030BD5FEA545C05D160
:1004B0004000494128BF41F0004130BD14F580049F
:1004C0003CBF01F5801130BD01F0004545F0FE4113
:1004D00041F470014FF0000030BD7FEA645C1ABF48
:1004E000194610467FEA655C1CBF0B46024650EA7F
:1004F000013406BF52EA033591EA030F41F40021AB
:1005000030BD00BF90F0000F04BF0021704730B530
:100510004FF4806404F132044FF000054FF0000105
:1005200050E700BF90F0000F04BF0021704730B5C6
:100530004FF4806404F1320410F0004548BF40429B
:100540004FF000013EE700BF42004FEAE2014FEAF0
:1005500031014FEA02701FBF12F07F4393F07F4FCB
:1005600081F06051704732F07F4208BF704793F0CE
:100570007F4F04BF41F40021704730B54FF46074E1
:1005800001F0004521F000411CE700BF50EA0102E4
:1005900008BF704730B54FF000050AE050EA01028D
:1005A00008BF704730B511F0004502D5404261EBFD
:1005B00041014FF4806404F132045FEA915C3FF43E
:1005C000D8AE4FF003025FEADC0C18BF03325FEADB
:1005D000DC0C18BF033202EBDC02C2F1200300FA8C
:1005E00003FC20FA02F001FA03FE40EA0E0021FAB1
:1005F00002F11444BDE600BF70B54FF0FF0C4CF49F
:10060000E06C1CEA11541DBF1CEA135594EA0C0F50
:1006100095EA0C0F00F0DEF82C4481EA030621EA8B
:100620004C5123EA4C5350EA013518BF52EA0335C6
:1006300041F4801143F4801338D0A0FB02CE4FF078
:100640000005E1FB02E506F00042E0FB03E54FF0A8
:100650000006E1FB03569CF0000F18BF4EF0010EA0
:10066000A4F1FF04B6F5007F64F5407404D25FEA9C
:100670004E0E6D4146EB060642EAC62141EA55514F
:100680004FEAC52040EA5E504FEACE2EB4F1FD0C91
:1006900088BFBCF5E06F1ED8BEF1004F08BF5FEA0F
:1006A000500E50F1000041EB045170BD06F00046C1
:1006B00046EA010140EA020081EA0301B4EB5C046E
:1006C000C2BFD4EB0C0541EA045170BD41F4801166
:1006D0004FF0000E013C00F3AB8014F1360FDEBF8B
:1006E000002001F0004170BDC4F10004203C35DA67
:1006F0000C341BDC04F11404C4F1200500FA05F3EA
:1007000020FA04F001FA05F240EA020001F000428A
:1007100021F0004110EBD37021FA04F642EB060100
:100720005EEA430E08BF20EAD37070BDC4F10C042A
:10073000C4F1200500FA04F320FA05F001FA04F2EE
:1007400040EA020001F0004110EBD37041F10001DA
:100750005EEA430E08BF20EAD37070BDC4F12005E5
:1007600000FA05F24EEA020E20FA04F301FA05F24D
:1007700043EA020321FA04F001F0004121FA04F2F5
:1007800020EA020000EBD3705EEA430E08BF20EAC5
:10079000D37070BD94F0000F0FD101F000464000FF
:1007A00041EB010111F4801F08BF013CF7D041EA81
:1007B000060195F0000F18BF704703F00046520085
:1007C00043EB030313F4801F08BF013DF7D043EA56
:1007D0000603704794EA0C0F0CEA135518BF95EA0C
:1007E0000C0F0CD050EA410618BF52EA4306D1D193
:1007F00081EA030101F000414FF0000070BD50EAB2
:10080000410606BF1046194652EA430619D094EA3B
:100810000C0F02D150EA013613D195EA0C0F05D125
:1008200052EA03361CBF104619460AD181EA030179
:1008300001F0004141F0FE4141F470014FF0000031
:1008400070BD41F0FE4141F4780170BD70B54FF0CC
:10085000FF0C4CF4E06C1CEA11541DBF1CEA13554C
:1008600094EA0C0F95EA0C0F00F0A7F8A4EB05042E
:1008700081EA030E52EA03354FEA013100F0888025
:100880004FEA03334FF0805545EA131343EA1263EE
:100890004FEA022245EA111545EA10654FEA0026A3
:1008A0000EF000419D4208BF964244F1FD0404F55C
:1008B000407402D25B084FEA3202B61A65EB0305B8
:1008C0005B084FEA32024FF480104FF4002CB6EB75
:1008D000020E75EB030E22BFB61A754640EA0C00F5
:1008E0005B084FEA3202B6EB020E75EB030E22BF35
:1008F000B61A754640EA5C005B084FEA3202B6EB76
:10090000020E75EB030E22BFB61A754640EA9C0034
:100910005B084FEA3202B6EB020E75EB030E22BF04
:10092000B61A754640EADC0055EA060E18D04FEAC2
:10093000051545EA16754FEA06164FEAC30343EA62
:1009400052734FEAC2025FEA1C1CC0D111F4801F2F
:100950000BD141EA00014FF000004FF0004CB6E728
:1009600011F4801F04BF01430020B4F1FD0C88BFC7
:10097000BCF5E06F3FF6AFAEB5EB030C04BFB6EBD2
:10098000020C5FEA500C50F1000041EB045170BDC5
:100990000EF0004E4EEA113114EB5C04C2BFD4EBF2
:1009A0000C0541EA045170BD41F480114FF0000E76
:1009B000013C90E645EA060E8DE60CEA135594EAF2
:1009C0000C0F08BF95EA0C0F3FF43BAF94EA0C0FF5
:1009D0000AD150EA01347FF434AF95EA0C0F7FF46A
:1009E00025AF104619462CE795EA0C0F06D152EABE
:1009F00003353FF4FDAE1046194622E750EA4106A2
:100A000018BF52EA43067FF4C5AE50EA41047FF4B2
:100A10000DAF52EA43057FF4EBAE12E74FF0FF3C17
:100A200006E000BF4FF0010C02E000BF4FF0010CE8
:100A30004DF804CD4FEA410C7FEA6C5C4FEA430C61
:100A400018BF7FEA6C5C1BD001B050EA410C0CBFB0
:100A500052EA430C91EA030F02BF90EA020F002012
:100A6000704710F1000F91EA030F58BF994208BF79
:100A700090422CBFD8176FEAE37040F00100704736
:100A80004FEA410C7FEA6C5C02D150EA013C07D18D
:100A90004FEA430C7FEA6C5CD6D152EA033CD3D0D8
:100AA0005DF8040B704700BF8446104662468C46D2
:100AB0001946634600E000BF01B5FFF7B7FF002805
:100AC00048BF10F1000F01BD4DF808EDFFF7F4FF2E
:100AD0000CBF012000205DF808FB00BF4DF808EDB9
:100AE000FFF7EAFF34BF012000205DF808FB00BFDC
:100AF0004DF808EDFFF7E0FF94BF012000205DF8FE
:100B000008FB00BF4DF808EDFFF7CEFF94BF0120B2
:100B100000205DF808FB00BF4DF808EDFFF7C4FFAB
:100B200034BF012000205DF808FB00BF4FEA410CF4
:100B30007FEA6C5C02D150EA013C0AD14FEA430CD7
:100B40007FEA6C5C02D152EA033C02D14FF0000014
:100B500070474FF0010070474FEA410212F5001252
:100B600015D211D56FF47873B3EB625212D94FEAF4
:100B7000C12343F0004343EA505311F0004F23FADE
:100B800002F018BF404270474FF00000704750EA33
:100B9000013005D111F0004008BF6FF000407047F0
:100BA0004FF00000704700BF4A0011D212F500124A
:100BB00011D20DD56FF47873B3EB62520ED44FEAB5
:100BC000C12343F0004343EA505323FA02F0704735
:100BD0004FF00000704750EA013002D14FF0FF3073
:100BE00070474FF0000070474FEA4102B2F1E04316
:100BF00024BFB3F5001CDCF1FE5C0DD901F0004C04
:100C00004FEAC0024CEA5070B2F1004F40EB830053
:100C100008BF20F00100704711F0804F21D113F17F
:100C20003872BCBF01F00040704741F480114FEAB8
:100C30005252C2F11802C2F1200C10FA0CF320FA41
:100C400002F018BF40F001004FEAC1234FEAD3235E
:100C500003FA0CFC40EA0C0023FA02F34FEA4303C8
:100C6000CCE77FEA625307D150EA01331EBF4FF051
:100C7000FE4040F44000704701F0004040F0FE406C
:100C800040F40000704700BF53B94AB9002908BFBB
:100C900000281CBF4FF0FF314FF0FF3000F0BEB90D
:100CA000ADF1080C6DE904CE00F03CF8DDF804E08D
:100CB000DDE9022304B0704738B500220023044662
:100CC0000D46FFF70BFF28B920462946BDE83840FE
:100CD00000F00AB8204605F1004100F005F8404256
:100CE00061EB410138BD00BFD0B50C4B0022064678
:100CF0000F46FFF781FCFFF757FF0446FFF702FCA2
:100D0000074B0022FFF778FC02460B463046394677
:100D1000FFF7BAFAFFF748FF2146D0BD0000F03DCB
:100D20000000F0412DE9F047089D8E4604468846B4
:100D3000002B4AD18A42174662D9B2FA82F64EB1E6
:100D4000C6F1200301FA06F820FA03F3B74043EA9C
:100D50000808B4404FEA174E1FFA87FCB8FBFEF1B3
:100D6000230C0EFB118843EA084301FB0CF29A4264
:100D700009D9FB1801F1FF3080F0EA809A4240F275
:100D8000E78002393B449A1AA3B2B2FBFEF00EFB95
:100D9000102243EA024300FB0CFC9C4509D9FB18D6
:100DA00000F1FF3280F0D6809C4540F2D3803B4476
:100DB000023840EA0140A3EB0C0300211DB1F340CF
:100DC0000022C5E90032BDE8F0878B4205D90DB19C
:100DD000C5E9000100210846F5E7B3FA83F10029CF
:100DE00046D1734502D3824200F20581841A6EEB2C
:100DF000030201209046002DE5D0C5E90048E2E756
:100E0000002A00F09080B2FA82F6002E40F0A48012
:100E10008A1A030C4FEA174E80B2BCB20121B2FB12
:100E2000FEFC0EFB1C2243EA024304FB0CF29A4236
:100E300007D9FB180CF1FF3802D29A4200F2E08089
:100E4000C4469B1AB3FBFEF20EFB123340EA034387
:100E500002FB04F49C4207D9FB1802F1FF3002D2D6
:100E60009C4200F2CA8002461B1B42EA0C40A5E7E6
:100E7000C1F120068B4022FA06F71F430EFA01F457
:100E800020FA06F32EFA06FE4FEA1749234300FA2A
:100E900001F81FFA87FCBEFBF9F01C0C09FB10EEF1
:100EA00044EA0E4400FB0CFEA64502FA01F209D901
:100EB0003C1900F1FF3A80F09C80A64540F29980F1
:100EC00002383C44A4EB0E041FFA83FEB4FBF9F392
:100ED00009FB13444EEA044403FB0CFCA44508D967
:100EE0003C1903F1FF3E80F08280A4457FD9023B8C
:100EF0003C4443EA0040A4EB0C04A0FB02EC644534
:100F00007346E14662D35FD05DB1B8EB030264EB98
:100F1000090404FA06F622FA01F31E43CC40C5E99F
:100F2000006400214FE7B1FBF2FC010C41EA0E41E5
:100F300080B240EA01423B4638463C46B846BE468F
:100F40002026B1FBF7F1A2EB080241EA0C4166E76B
:100F5000014618E710462CE7C6F120022EFA02F3EC
:100F6000B740B14020FA02F24FEA174E0A43B3FBF2
:100F7000FEF8BCB20EFB1833110C41EA034108FB2A
:100F800004F9B04089454FEA104380B23ED9791840
:100F900008F1FF3C01D289451FD8A1EB0901B1FB43
:100FA000FEF909FB04F80EFB191192B242EA014264
:100FB000424529D2BA1809F1FF31C4D24245C2D202
:100FC000A9F102013A44BEE7F0459DD2BEEB02030F
:100FD0006CEB070C0138E14696E7A7EB0909494499
:100FE000A8F1020CB1FBFEF909FB04F8DBE773463C
:100FF0007FE7504666E70846FDE63B44023A33E7A2
:10100000ACF1020C3B441CE749469CE7A1EB09010B
:10101000C446B1FBFEF909FB04F8C4E7704700BF02
:1010200000B52148214985B00023012201604FF419
:101030008031CDE90033CDE90233C0E9011302610B
:10104000037680F82030C36080F8302002234261AC
:10105000174AC3610023C0E90A2303F0DBF9A0B9F2
:101060009FED0F7B00231048029369468DED007BB6
:1010700003F008FC88B902230B480193694603F08A
:1010800001FC28B905B05DF804FB02F0A7FCE7E716
:1010900002F0A4FC05B05DF804FB02F09FFCEAE757
:1010A000000000000100000070020020002001404C
:1010B0000100000F70B5294B026888B000249A42E5
:1010C000CDE90244CDE90444069401D008B070BDD6
:1010D00003F58C3300945A6C214E42F480725A64AA
:1010E0005A6C02F480720092009A01941A6B42F0DA
:1010F00001021A631B6B03F0010301930522032312
:10110000054602A91748CDE90223019B03F0DCFE46
:10111000154A74624FF48063C6E9002433614FF4CA
:1011200000624FF40053C6E9052330464FF4803384
:10113000C6E90244C6E9074303F0C4FC58B90022DB
:10114000AE6311461220B56303F058FC122003F081
:1011500091FC08B070BD02F041FCF0E700200140B6
:101160000C020020000002401064024070B50C4CDC
:101170000C4E80252A460021204606F014FB0A4A20
:101180000A480023138021460380094C0948336034
:101190002A46036023600848BDE8704005F04ABB5A
:1011A000C8030020C0020020C4020020C6020020A4
:1011B000B8020020BC020020681E0020B44B026868
:1011C0009A4200D070472DE9F04FB24AB24F1368EF
:1011D000DFF8D4820B448DB013603A88B8F8003041
:1011E00092B29BB29A423B88B8F800203CBF9BB2B7
:1011F00003F580739B1A9BB2C3F1FF039BB2994224
:1012000041D899B1A548A64D014400263B8810F865
:10121000014B9BB25A1C92B23A803A88EC5493B27A
:10122000B3F5807F08BF3E808142EFD1DFF8709236
:101230000DF12B063A88B8F8003092B29BB29A4270
:101240003B88B8F800203CBF9BB203F580739B1A23
:101250009BB2102B40F26F81B8F80020B8F8003034
:1012600092B29BB219F80220FF2A05D10133DBB2FA
:1012700019F80330FD2B0BD0B8F800300133DBB286
:10128000A8F80030D6E7874A136801331360CDE72A
:10129000B8F80030DBB20DF11D0019F803308DF8FD
:1012A0001C30B8F80030013303F0FF0319F80330A5
:1012B0008DF81D30B8F80030023303F0FF0319F841
:1012C00003C0B8F800308DF81EC0033303F0FF03ED
:1012D00019F80320B8F800308DF81F20043303F00C
:1012E000FF0319F803B0B8F800308DF820B00533CB
:1012F00003F0FF0319F803A0B8F800308DF821A01F
:10130000063303F0FF0319F80350B8F800308DF8E6
:101310002250073303F0FF0319F80340B8F80030F8
:101320008DF82340083303F0FF0319F803300193CD
:101330008DF82430B8F80030093303F0FF0319F8B2
:10134000033002938DF82530B8F800300A3303F0EB
:10135000FF0319F8033003938DF82630B8F80030F6
:101360000B3303F0FF0319F8033004938DF8273093
:10137000B8F800300C3303F0FF0319F803308DF890
:101380002830B8F800300D3303F0FF0319F80330AC
:101390008DF82930B8F800300E3303F0FF0319F848
:1013A00003308DF82A30B8F800300F3303F0FF0314
:1013B00019F803308DF82B30B8F80030103303F0F3
:1013C000FF0319F803E08DF82CE0002329E0590011
:1013D000CBB249B2002931DB5B00D9B25BB2002B42
:1013E00033DB4B00D9B25BB2002B35DB4900CBB20B
:1013F00049B2002937DB5B00D9B25BB2002B39DB85
:101400004900CBB249B200293BDB5B00D9B25BB2E9
:10141000002BB6BF5B004B0083F007038642DBB2B4
:1014200044D010F8011F4B4059B20029CFDA4B00CD
:1014300083F0070359B20029DBB2CDDA490081F00D
:1014400007014BB2002BC9B2CBDA5B0083F0070176
:101450004BB2002BC9B2C9DA5B0083F0070359B263
:101460000029DBB2C7DA490081F007014BB2002B3B
:10147000C9B2C5DA5B0083F0070359B20029DBB2B9
:10148000C3DA490081F007014BB2C9B2C0E700BF1F
:1014900000100140B8020020C6020020C80300204E
:1014A000C8020020BC020020C4020020734545D1C0
:1014B000ACF16403642B4ED9A2F16403642B42D9CE
:1014C000ABF16403642B40F29480AAF16403642BB3
:1014D00040F28580A5F16403642B78D9A4F16403FC
:1014E000642B6CD9019B643B642B5ED9029B643BEB
:1014F000642B50D9039B643B642B42D9049B643B0F
:10150000642B34D90DF12705002415F8011F01EBD8
:101510008101E0B24900013402F076F8042CF4D1E4
:10152000394A136801331360B8F800301133DBB265
:10153000A8F800307EE60DB0BDE8F08F334A13689E
:1015400001331360F0E7963AC2EB0212D10001209A
:1015500002F048F8B4E7ACF1960CCCEB0C1C4FEA67
:10156000CC010020059202F03DF8059AA4E7049B07
:10157000A3F19601C1EB0111C900092002F032F874
:10158000C0E7039BA3F19601C1EB0111C90008203C
:1015900002F028F8B2E7029BA3F19601C1EB01111A
:1015A000C900072002F01EF8A4E7019BA3F19601F1
:1015B000C1EB0111C900062002F014F896E7963C31
:1015C000C4EB0414E100052002F00CF88AE7963D14
:1015D000C5EB0515E900042002F004F87EE7AAF146
:1015E000960ACAEB0A1A4FEACA01032001F0FAFF71
:1015F00070E7ABF1960BCBEB0B1B4FEACB01022054
:1016000001F0F0FF61E700BFC0020020BC02002033
:1016100038B5124A0368934200D038BD426C1207B5
:10162000FBD50F4C0F4822680F4D6FF008010132B7
:10163000226019608022002106F0B5F80B490C4A9F
:101640000C4800230B80138006490360802223602E
:1016500009482B60BDE8384005F0ECB800100140A7
:10166000BC020020C8030020B8020020C4020020F1
:10167000C6020020C0020020681E0020034A044960
:10168000002313600B70C2F8033070474C04002035
:10169000480400200D4B1A7802B170470C494FF6F0
:1016A000FF520A8002888A700288120ACA70428831
:1016B0000A7142884FF0010C83F800C0130A4B7185
:1016C000037904488B71072204F004BD480400200C
:1016D0004C040020681E002010B582B000242C4B62
:1016E0000094196B41F480011963186B00F48000B9
:1016F000009000980194186B40F4001018631B6B65
:1017000003F400132246012101933820019B03F0CA
:1017100075F9382003F0AEF922460121392003F093
:101720006DF9392003F0A6F9224601213B2003F090
:1017300065F93B2003F09EF9224601213C2003F08D
:101740005DF93C2003F096F922460121442003F084
:1017500055F9442003F08EF922460121452003F07B
:101760004DF9452003F086F922460A21462003F070
:1017700045F9462003F07EF922460A213A2003F07B
:101780003DF93A2002B0BDE8104003F073B900BF44
:10179000003802402DE9F041DFF83481484F494ECE
:1017A000494D4A4C4FF402720021404605F0FBFFC0
:1017B0004FF402720021384605F0F5FF4FF4027233
:1017C0000021304605F0EFFF4FF402720021284659
:1017D00005F0E9FF4FF402720021204605F0E3FF17
:1017E0006023C8F8003040F201404FF4A073386025
:1017F00033604FF4A0432B60DFF8D8C04FF4085398
:101800002360012358F8231041F4C00148F8231045
:1018100057F8231041EA0C0147F8231056F823101B
:1018200041F0A07146F8231055F8231041F0A04173
:1018300045F8231054F8231041F0085144F82310C0
:101840009A1D083358F8221041F0600148F8221020
:1018500057F82210014347F8221056F8221041F49D
:10186000A07146F8221055F8221041F4A04145F825
:10187000221054F82210812B41F4085144F8221010
:10188000C0D1D8F8043243F06003C8F80432D7F866
:1018900004320343C7F80432D6F8043243F4A07389
:1018A000C6F80432D5F8043243F4A043C5F8043234
:1018B000D4F8043243F40853C4F80432BDE8F0818C
:1018C0002C140020FC0F0020CC0B00209C070020D3
:1018D0005C180020000001042DE9F04F054683B09C
:1018E000FFF758FFA5F102084FF00F0CDFF8E8B042
:1018F000DFF8E8A0DFF8E890CDF8048004264FF088
:10190000060E12356446012303FA04FC2E49019B9E
:101910002E4A009433F8020F10EA0C0F16D11078FB
:10192000012404FA00F00C78042C0FD8DFE804F04E
:1019300039472D2103005BF82E4024EA00044BF8C0
:101940002E405BF8264004434BF826409D4201F1AF
:10195000010102F10102DDD1009C0EF1080EBEF181
:10196000860F04F1FF3406F10806CCD103B0BDE8C0
:10197000F08F5AF82E4024EA00044AF82E405AF814
:10198000264004434AF82640E0E759F82E4024EA6E
:10199000000449F82E4059F82640044349F82640EF
:1019A000D4E70B4C274654F82E4024EA000447F8AD
:1019B0002E4057F82640044347F82640C6E7054F17
:1019C00057F82E40F1E700BF04B00008F8AF000858
:1019D0005C1800202C1400209C070020CC0B002059
:1019E000FC0F002041EA4001C1F30723C1F30B10B3
:1019F000584089B24840C04300F00F0040EA01104F
:101A000080B2704730B40A4C0A480B4A0B490C4B61
:101A10006025A56140F2014484614FF4A074946193
:101A20004FF4A0404FF40852886130BC9A6170476F
:101A3000000002400004024000080240000C024086
:101A40000010024038B5FFF7DDFF2748274DFFF7AC
:101A500043FF27482749284A284B012404700C706B
:101A600014701C702C7000F04FFC00F085FD00F02D
:101A7000BBFE01F003F801F049F9214A2149222077
:101A8000D0625463D4631464536943F021035361F7
:101A9000D36843F4D853D360C8624B6923434B6186
:101AA000CB6843F48073CB60BFF34F8FBFF36F8F6E
:101AB0001068154B204310600A6822430A60D3F86F
:101AC00088202243C3F888201A6F22431A679A6D30
:101AD00022439A65D3F8A0202243C3F8A0209A6A33
:101AE00022439A6238BD00BF9404002010000020F9
:101AF0000F0000200E0000200D0000200C00002030
:101B000000000140000401400064024010B487B0AE
:101B1000744A754B00210191106B40F00100106375
:101B2000146B04F001040194019C0291146B44F0C5
:101B300002041463146B04F002040294029C0391E7
:101B4000146B44F004041463146B04F00404039451
:101B5000039C0491146B44F008041463146B04F0A8
:101B600008040494049C0591146B44F0100414635D
:101B7000146B04F010040594059C546C44F00304A9
:101B80005464146B44F480041463842022242322BC
:101B900018609962DC625A630122DA631A642022B7
:101BA0005A60DA6842F4D852DA60DA6922F4E04224
:101BB000DA61DA6942F4C042DA611A6A42F48052A8
:101BC0001A625A6C42F400425A645A6942F00102A5
:101BD0005A611A6922F001021A61C3F80004C3F8BD
:101BE0002814C3F82C44D3F84414404A41F400416B
:101BF000C3F84414D3F8141441F00101C3F81414C9
:101C0000D3F8101421F00101C3F81014D2F8883071
:101C100023F00103C2F88830D2F88830DB07FBD408
:101C2000334B4FF47461D160C2F88830314B1021CE
:101C30009960302183F84413136F2C4823F001037B
:101C40001367036FDC07FCD4294B3D22C260036796
:101C5000284B4FF080525A60302283F83C23836D2A
:101C6000224923F0010383658B6DD807FCD4204BF8
:101C70004FF074628A608B651E4B4FF000625A60B1
:101C8000302283F83B23D1F8A030184A23F0010317
:101C9000C1F8A030D2F8A030D907FBD4144B4FF4D0
:101CA0007411D160C2F8A030124B2021996030210C
:101CB00083F84513936A0D4923F0010393628B6AFD
:101CC000DB07FCD40C4B4FF474628A608B62094BC7
:101CD0004FF000725A60302283F8392307B05DF864
:101CE000044B70470038024000000140006402408D
:101CF0005054030C00E100E05054030E0123F0B5F2
:101D000003FA01F100F59075A84200F1040300F117
:101D1000080600F09C80D0E9002411420ED0214238
:101D200082687ED01142C46800F10C0300F11000FB
:101D30007AD02142E8D11A46034610461A460025B9
:101D400052F8044B214203F1FC0E2E4616D15F6877
:101D5000394203F1080452D19F68394203F10C0261
:101D600050D1DC68214203F1100C4DD1F44507D865
:101D700063461A4652F8044B2142E8D072450AD90C
:101D80000368C5F11502194206FA02F002D0324B7F
:101D90002B411843F0BD101A142838DC01200446EA
:101DA0002C448640E5B27245944602F1080451D2B3
:101DB0005CF8040B014210D05068014242D0906898
:101DC000014202F10C0C02F110023ED052F8040C58
:101DD0000142E8D1604694460246F4451FD8ACEB78
:101DE0000303142B22DC0120044603462B4406FA8D
:101DF00004F444EA0006DDB210466346B9E7134630
:101E00002246BBE72346B9E713466246B6E7134CC2
:101E10008010A4FB0004C4F347042046C0E7184622
:101E2000AEE71846334689E7304687E70B489B10F4
:101E3000A0FB0303C3F347030748C3F11504204184
:101E40001C46D3E76246A446C7E72246C5E74FF0E3
:101E5000FF30F0BD184689E7FFFF1F00ABAAAAAA12
:101E60006FF0704398424CD280EA500000F01F039C
:101E7000294A30B452F82340631CC0F344153AD0C9
:101E800052F825506B1C36D0C0F3842352F823300F
:101E9000B3F1FF3F2FD0C0F3C43052F82020501CC4
:101EA00029D01B0243EA0513234343EA023383EAA2
:101EB0001312C3F30B205040C3F307324240D24306
:101EC00012074FEA131021D15B0BC0F308009840B2
:101ED000124B134C134A80B2B2FBF0F2A3FB020385
:101EE000D21A03EB520304EB810001229B0804F891
:101EF0002120438003E00A4B002223F8212030BC3C
:101F00007047074B002203F821207047044B002242
:101F100003F82120F3E700BF78AF00082549922499
:101F2000680400200087930308B500F03BFA00F036
:101F300067FB00F099FC00F0E9FD00F031FF024B77
:101F400000221A7008BD00BF900400201E4B002222
:101F500000211A605A609A6099815A619A61DA6127
:101F600019849A62DA621A639986DA631A645A6487
:101F7000A3F848101A655A659A65A3F85C105A666A
:101F80009A66DA66A3F870109A67DA67C3F8802059
:101F9000A3F88410C3F88C20C3F89020C3F89420D1
:101FA000A3F89810C3F8A020C3F8A420C3F8A82071
:101FB000A3F8AC10C3F8B420C3F8B820C3F8BC2011
:101FC000A3F8C010704700BFA8040020092800F241
:101FD0001C81F5EEC00AF1EE10FA40F216818C4A2F
:101FE00007EE901AB5EEC00AF1EE10FA10B4F8EE52
:101FF000677A92ED006A034600F1A78040F38C8077
:10200000002900F0EE80834970EE676A00EB8002E1
:1020100001EB820226EE866A4FEA800CC2ED047A5A
:102020000120DFED7D7A60EE277AB0EEE67AB4EE3D
:10203000E77AF1EE10FA40F1B380784ADFED787A72
:1020400092ED007A0CEB030201EB820260EE870A4C
:1020500092ED007AA0EEA67AB4EEE77AF1EE10FAED
:1020600000F3C880DFED6F7AB4EEE77AF1EE10FA94
:1020700040F1C280F0EE404AB0EE677AC2ED007ADD
:102080000CEB030201EB8202D2ED015AD2ED027A8F
:102090009FED655A654CC2ED016A67EE857A76EE72
:1020A000E55A9FED635A30EE060AE5EE857A01287F
:1020B00030EE070A94ED006A9FED5E7AC2ED027A77
:1020C000A7EE860A20EE070A59D002285FD1B5EEA6
:1020D000C00AF1EE10FA00F18B80DFED577A30EE96
:1020E000270ADFED567AB4EEE70AF1EE10FAB6EE03
:1020F000007A88BFB0EE670A30EE070ABCEEC00A6D
:1021000010EE102A90B29C4401EB8C01012B8881C7
:1021100049D05DF8044B704770EE676A3D4926EE82
:10212000866AF0EE404A0020B0EEC00A4FEA830C07
:102130000CEB030201EB820292ED007ADFED407AB4
:1021400027EE277A82ED007A9AE7B1EE400A00295D
:102150003CD102202F4903EB830201EB820292ED76
:10216000047AB5EE407AF1EE10FA4FEA830CC8BF5C
:10217000F0EE477A70EE676A26EE866A51E7B5EEB2
:10218000C00AF1EE10FA2ED54FF48360BBE70023AE
:1021900000205DF8044B1360536093601361704737
:1021A000F0EE404AC4E727490A88013292B2B2F5FC
:1021B000967F0A80ADD3244A002413700C80C2EDB0
:1021C000016AC2ED024A90819373A2E7114900EBC4
:1021D000800201EB82024FEA800CC2ED047A0220F9
:1021E000C8E70120B6E7DFED197A30EE270A78E775
:1021F000302088E7B0EE677A0CEB030201EB820235
:10220000F0EE404A82ED007A3AE70020704700BFC6
:1022100008000020A80400209A99993F040000209B
:102220000000FA430000FAC39A99193F0000002009
:10223000CDCCCC3E9A99193E0000404200E0FF44CC
:102240003333733F540400205804002000008344BB
:10225000274A284B116821F4705110B41160D168DD
:1022600021F47051D160D16841F4A051D160196856
:10227000452421F0010123201960DC62586359696B
:1022800002F5C84241F001015961D2F8883023F0CB
:102290000103C2F88830D2F88830D90704D500BFCE
:1022A000D2F88830DB07FAD4134B144C1448154A83
:1022B0004FF47461D9608A21C3F89040C3F8940048
:1022C000C3F88C10C3F88820BFF34F8FBFF36F8F14
:1022D000D3F88810074A5DF8044B41F00101002053
:1022E000C3F888105062136843F00103136070470D
:1022F0000000024000000140006402401000024063
:10230000341600201054030C204B21481968214A30
:1023100041F4A05110B41960196821F420511960DA
:10232000596821F060015960D96841F4A051D96021
:10233000D96821F42051D960996841F470519960AD
:10234000036823F001030360D2F8883023F001030F
:10235000C2F88830D2F88830D90704D500BFD2F847
:102360008830DB07FAD40B4B0B4C0C480C4A4FF46B
:102370007461D9608221C3F89040C3F894005DF87D
:10238000044BC3F88C10C3F888207047000002404B
:102390000000014000640240180002405C18002068
:1023A0005054030C38B5474C257825B9464B19785D
:1023B0004B1F012B47D9637823B9434B59784B1FE7
:1023C000012B47D9A37823B93F4B99784B1F012B99
:1023D00047D9E37823B93C4BD9784B1F012B47D918
:1023E000237923B9384B19794B1F012B47D96379CE
:1023F00023B9354B59794B1F012B47D9A37923B901
:10240000314B99794B1F012B47D9E37923B92E4BD7
:10241000D9794B1F012B47D9237A23B92A4B197A33
:102420004B1F012B47D9637A23B9274B597A4B1F8E
:10243000012B00D938BD2548FFF760FCBDE83840C6
:102440000921FFF70DBD2148FFF758FC2946FFF78A
:1024500007FDB0E71D48FFF751FC0121FFF700FD24
:10246000B0E71A48FFF74AFC0221FFF7F9FCB0E792
:102470001648FFF743FC0321FFF7F2FCB0E71348CF
:10248000FFF73CFC0421FFF7EBFCB0E70F48FFF738
:1024900035FC0521FFF7E4FCB0E70C48FFF72EFC04
:1024A0000621FFF7DDFCB0E70848FFF727FC07210E
:1024B000FFF7D6FCB0E70548FFF720FC0821FFF73F
:1024C000CFFCB0E704B00008F8AF000834160020D5
:1024D000224A23481168234B014010B41160D1688F
:1024E0000140D160D16841F4801141F00101D16017
:1024F0001A68232122F0010245201A60D86219646B
:102500005969194A41F001015961136F23F0010320
:102510001367136FD90703D500BF136FDB07FBD415
:10252000114B124C1248134A3D21D9608A219C67F5
:10253000D86759671A67BFF34F8FBFF36F8F196F53
:10254000084A5DF8044B41F0010100201967506210
:10255000136843F001031360704700BF000402409A
:10256000FCFFCFFF00000140006402401004024065
:10257000041200201054030C1A4B1B481A6810B4A4
:102580001A4C22431A601968194A014019605968A7
:1025900021F4806121F001015960D9682143D9609B
:1025A000D9680140D960996841F4401141F00301B4
:1025B0009960136F23F001031367136FD90703D5D5
:1025C00000BF136FDB07FBD4094B0A4C0A480B4AC8
:1025D0003D21D96082219C67D8675DF8044B59671B
:1025E0001A67704700040240FDFFDFFF0100100082
:1025F00000640240180402402C1400205054030CC4
:1026000010B54D4C2378012B00F089806378012BA5
:1026100079D0A378012B6AD0E378012B5BD02379A2
:10262000012B4CD06379012B3DD0A379012B2ED007
:10263000E379012B1FD0237A012B10D0637A012B71
:1026400000D010BD3D4B597A09B10A29F9D13C4857
:10265000FFF754FBBDE810400921FFF701BC374BE1
:10266000197A09B10A29E9D13548FFF747FB082152
:10267000FFF7F6FBE2E7314BD97909B10A29DAD144
:102680002F48FFF73BFB0721FFF7EAFBD3E72B4B74
:10269000997909B10A29CBD12948FFF72FFB0621E7
:1026A000FFF7DEFBC4E7254B597909B10A29BCD1F4
:1026B0002348FFF723FB0521FFF7D2FBB5E71F4BAC
:1026C000197909B10A29ADD11D48FFF717FB04217B
:1026D000FFF7C6FBA6E7194BD97809B10A299ED1A5
:1026E0001748FFF70BFB0321FFF7BAFB97E7134BE4
:1026F000997809B10A298FD11148FFF7FFFA022111
:10270000FFF7AEFB88E70D4B597809B10A2980D154
:102710000B48FFF7F3FA0121FFF7A2FB79E7074B1C
:10272000197811B10A297FF471AF0548FFF7E6FA6D
:102730000021FFF795FB69E704B00008F8AF000837
:1027400004120020224A234B116821F44C3110B4AA
:102750001160D16821F44C31D160D16841F48831E5
:10276000D1601968452421F0010123201960DC6241
:102770005863596902F5B84241F001015961936DFE
:1027800023F001039365936DD90703D500BF936DC3
:10279000DB07FBD4104B114C1148124A4FF0746107
:1027A00099608A211C665866D9659A65BFF34F8F78
:1027B000BFF36F8F996D074A5DF8044B41F001013B
:1027C000002099655062136843F00103136070475D
:1027D000000802400000014000640240100802406E
:1027E000D40D00201054030C1A4B1B4A196841F4F5
:1027F000883110B41960196821F4083119605968DA
:1028000021F4A0715960D96841F48831D960D96840
:1028100021F40831D960996841F44C319960936D85
:1028200023F001039365936DD90703D500BF936D22
:10283000DB07FBD4084B094C09480A4A4FF0746186
:10284000996082211C6658665DF8044BD9659A65CB
:10285000704700BF000802400064024018080240B0
:10286000FC0F00205054030C10B5534C2378022B5E
:1028700000F094806378022B00F08280A378022B12
:1028800071D0E378022B61D02379022B51D0637988
:10289000022B41D0A379022B31D0E379022B21D036
:1028A000237A022B11D0637A022B00D010BD434B48
:1028B000597A062901D00829F8D14148FFF71EFAB4
:1028C000BDE810400921FFF7CBBA3C4B197A062925
:1028D00001D00829E7D13A48FFF710FA0821FFF79D
:1028E000BFFAE0E7354BD979062901D00829D7D1BD
:1028F0003348FFF703FA0721FFF7B2FAD0E72F4B6F
:102900009979062901D00829C7D12D48FFF7F6F992
:102910000621FFF7A5FAC0E7284B5979062901D00F
:102920000829B7D12648FFF7E9F90521FFF798FAFA
:10293000B0E7224B1979062901D00829A7D12048F0
:10294000FFF7DCF90421FFF78BFAA0E71B4BD978DE
:10295000062901D0082997D11948FFF7CFF903219B
:10296000FFF77EFA90E7154B9978062901D00829E0
:1029700087D11348FFF7C2F90221FFF771FA80E708
:102980000E4B5978062902D008297FF477AF0C48FE
:10299000FFF7B4F90121FFF763FA6FE7074B1978E6
:1029A000062902D008297FF465AF0548FFF7A6F98C
:1029B0000021FFF755FA5DE704B00008F8AF000802
:1029C000D40D0020274A284B116821F04C5110B437
:1029D0001160D16821F04C51D160D16841F088512B
:1029E000D1601968452421F0010123201960DC62BF
:1029F000D863596902F5B04241F001015961D2F83A
:102A0000A03023F00103C2F8A030D2F8A030D907DB
:102A100004D500BFD2F8A030DB07FAD4134B144C16
:102A20001448154A4FF47411D9608A21C3F8A8409C
:102A3000C3F8AC00C3F8A410C3F8A020BFF34F8FB5
:102A4000BFF36F8FD3F8A010074A5DF8044B41F035
:102A500001010020C3F8A0105062136843F0010385
:102A600013607047000C0240000001400064024007
:102A7000100C0240A40900201054030C1E4B1F4AE6
:102A8000196841F0885110B41960196821F0085193
:102A90001960596821F4A0415960D96841F0885102
:102AA000D960D96821F00851D960996841F04C513A
:102AB0009960D2F8A03023F00103C2F8A030D2F818
:102AC000A030D90704D500BFD2F8A030DB07FAD474
:102AD0000A4B0B4C0B480C4A4FF47411D9608221FD
:102AE000C3F8A840C3F8AC005DF8044BC3F8A410C9
:102AF000C3F8A020704700BF000C024000640240F1
:102B0000180C0240CC0B00205054030C38B5534C29
:102B10002378032B00F094806378032B00F08280ED
:102B2000A378032B71D0E578032D61D02379032B93
:102B300051D06379032B41D0A379032B31D0E379B2
:102B4000032B21D0237A032B11D0637A032B00D0DF
:102B500038BD434B597A01F0FD030C2BF8D14148A5
:102B6000FFF7CCF8BDE838400921FFF779B93C4BB5
:102B7000197A01F0FD030C2BE7D13A48FFF7BEF8B4
:102B80000821FFF76DF9E0E7354BD97901F0FD0336
:102B90000C2BD7D13348FFF7B1F80721FFF760F9C5
:102BA000D0E72F4B997901F0FD030C2BC7D12D48AD
:102BB000FFF7A4F80621FFF753F9C0E7284B59792E
:102BC00001F0FD030C2BB7D12648FFF797F805213C
:102BD000FFF746F9B0E7224B197901F0FD030C2B02
:102BE000A7D12048FFF78AF80421FFF739F9A0E7B9
:102BF0001B4BD97801F0FD030C2B97D11948FFF737
:102C00007DF82946FFF72CF990E7154B997801F0EC
:102C1000FD030C2B87D11348FFF770F80221FFF753
:102C20001FF980E70E4B597801F0FD030C2B7FF460
:102C300077AF0C48FFF762F80121FFF711F96FE752
:102C4000074B197801F0FD030C2B7FF465AF0548A5
:102C5000FFF754F80021FFF703F95DE704B000081F
:102C6000F8AF0008A4090020214B22481A68224925
:102C7000024010B41A60DA680240DA60DA6842F0A2
:102C8000806242F48022DA600B681C4A23F0010360
:102C900045200B60C8624B6943F001034B61936AA6
:102CA00023F001039362936AD90703D500BF936AA7
:102CB000DB07FBD4114B124C1248134A4FF47461DA
:102CC00099608A211C635863D9629A62BFF34F8F5F
:102CD000BFF36F8F996A084A5DF8044B41F0010118
:102CE000002099625062136843F00103136070473B
:102CF00000100240FFFFF3F30004014000640240B3
:102D000010100240740500201054030E1C4B1D4986
:102D10001A681D480A4310B41A601A681B4C2240F6
:102D20001A605A6822F408525A60DA680A43DA6074
:102D3000D968174A2140D960996841F0406141F44F
:102D400040219960036823F001030360936A23F034
:102D500001039362936AD90703D500BF936ADB0727
:102D6000FBD40B4B0B4C0C480C4A4FF4746199602C
:102D700082211C6358635DF8044BD9629A627047E4
:102D8000001002400000040400040140FFFFF7F7B8
:102D900000640240181002409C0700205054030EAB
:102DA00038B5534C2378042B00F094806378042BBF
:102DB00000F08280A378042B71D0E378042B61D0DB
:102DC0002579042D51D06379042B41D0A379042BAC
:102DD00031D0E379042B21D0237A042B11D0637AEC
:102DE000042B00D038BD434B597A01F0FB04092C69
:102DF000F8D14148FEF782FF2146BDE83840FFF791
:102E00002FB83C4B197A01F0FB03092BE7D13A4864
:102E1000FEF774FF0821FFF723F8E0E7354BD97977
:102E200001F0FB03092BD7D13348FEF767FF0721D9
:102E3000FFF716F8D0E72F4B997901F0FB03092B28
:102E4000C7D12D48FEF75AFF0621FFF709F8C0E762
:102E5000284B597901F0FB03092BB7D12648FEF71F
:102E60004DFF0521FEF7FCFFB0E7224B197901F079
:102E7000FB03092BA7D12048FEF740FF2946FEF7A8
:102E8000EFFFA0E71B4BD97801F0FB03092B97D18B
:102E90001948FEF733FF0321FEF7E2FF90E7154BD9
:102EA000997801F0FB03092B87D11348FEF726FF21
:102EB0000221FEF7D5FF80E70E4B597801F0FB03A6
:102EC000092B7FF477AF0C48FEF718FF0121FEF7BE
:102ED000C7FF6FE7074B197801F0FB03092B7FF45D
:102EE00065AF0548FEF70AFF0021FEF7B9FF5DE771
:102EF00004B00008F8AF000874050020404B5A6881
:102F0000120556D5DA6810B53E4C42F40062DA601C
:102F10002278002A6ED1D3F8882022F00102C3F86B
:102F20008820D3F88820D00704D500BFD3F88820A4
:102F3000D107FAD43249344ACB6843F47463CB6086
:102F4000137843F00103137072B6304A13780133DB
:102F5000DBB213701378042B07D1A1F5B231002036
:102F60000B6823F001030B60107062B6012323701D
:102F7000234B5A68520503D5DA6842F48062DA605E
:102F80001F4B5A68940503D5DA6842F40072DA6080
:102F90001B4B5A68D00503D5DA6842F48072DA60B8
:102FA000174B5A68510603D5DA6842F04002DA60DE
:102FB00010BD134B5A68520503D5DA6842F480629B
:102FC000DA600F4B5A68900503D5DA6842F4007254
:102FD000DA600B4B5A68D10503D5DA6842F4807287
:102FE000DA60074B5A68520642BFDA6842F0400284
:102FF000DA607047FFF72CF900232370B8E700BFB1
:1030000000640240100000209004002070050020A1
:10301000454B5A68920654D510B5DA68434C42F0D5
:10302000200282B0DA602278002A6BD11A6F22F077
:1030300001021A671A6FD00703D500BF1A6FD107B4
:10304000FBD439493A4ACB6843F03D03CB6013784F
:1030500043F00203137072B6364A13780133DBB2C1
:1030600013701378042B07D1A1F5B23100200B683F
:1030700023F001030B60107062B6012323702A4B0A
:103080005A68D20603D5DA6842F01002DA60264B9D
:103090005A68140703D5DA6842F00802DA60224B56
:1030A0005A68500703D5DA6842F00402DA601E4B12
:1030B0005A68D10703D5DA6842F00102DA6002B03B
:1030C00010BD194B5A68D20603D5DA6842F01002D7
:1030D000DA60154B5A68100703D5DA6842F0080227
:1030E000DA60114B5A68510703D5DA6842F00402DE
:1030F000DA600D4B5A68D20742BFDA6842F001022B
:10310000DA607047FFF7E4F900230193019B632B1A
:1031100006DC00BF019B01330193019B632BF8DDAB
:1031200000232370ABE700BF006402400F000020C3
:1031300090040020700500203E4B1A68120152D501
:103140009A6810B53C4C42F000629A602278002ADE
:103150006AD19A6D22F001029A659A6DD00703D563
:1031600000BF9A6DD107FBD43249344A8B6843F0D3
:1031700074638B60137843F00403137072B6304AA3
:1031800013780133DBB213701378042B07D1A1F548
:10319000B23100200B6823F001030B60107062B69F
:1031A00001232370234B1A68520103D59A6842F019
:1031B00080629A601F4B1A68940103D59A6842F0A6
:1031C00000729A601B4B1A68D00103D59A6842F0CE
:1031D00080729A60174B1A68510203D59A6842F4BC
:1031E00080029A6010BD134B1A68520103D59A6889
:1031F00042F080629A600F4B1A68900103D59A687A
:1032000042F000729A600B4B1A68D10103D59A689C
:1032100042F080729A60074B1A68520242BF9A6865
:1032200042F480029A607047FFF78CFA0023237003
:10323000B8E700BF006402400E00002090040020A8
:1032400070050020404B5A68920256D5DA6810B5D6
:103250003E4C42F40012DA602278002A6ED1D3F894
:10326000A02022F00102C3F8A020D3F8A020D007AC
:1032700004D500BFD3F8A020D107FAD43249344A8C
:10328000CB6843F47413CB60137843F008031370D6
:1032900072B6304A13780133DBB213701378042B03
:1032A00007D1A1F5B23100200B6823F001030B60B8
:1032B000107062B601232370234B5A68D20203D5E3
:1032C000DA6842F48012DA601F4B5A68140303D59F
:1032D000DA6842F40022DA601B4B5A68500303D5C7
:1032E000DA6842F48022DA60174B5A68D10303D5BA
:1032F000DA6842F48032DA6010BD134B5A68D202A9
:1033000003D5DA6842F48012DA600F4B5A68100372
:1033100003D5DA6842F40022DA600B4B5A68510395
:1033200003D5DA6842F48022DA60074B5A68D20388
:1033300042BFDA6842F48032DA607047FFF742FB3E
:1033400000232370B8E700BF006402400D00002096
:103350009004002070050020374B1A68120545D5EF
:103360009A6810B5354C42F400629A602278002ABF
:103370005DD133490A6822F001020A609A6A22F09C
:1033800001029A629A6AD00703D500BF9A6AD107F0
:10339000FBD429492B4A8B6843F474638B60137800
:1033A000012043F0100320701370234B1A6852055C
:1033B00003D59A6842F480629A601F4B1A6894059C
:1033C00003D59A6842F400729A601B4B1A68D005C4
:1033D00003D59A6842F480729A60174B1A685106B6
:1033E00003D59A6842F040029A6010BD124B1A68E9
:1033F000520503D59A6842F480629A600E4B1A68AF
:10340000900503D59A6842F400729A600A4B1A68D4
:10341000D10503D59A6842F480729A60064B1A6807
:10342000520642BF9A6842F040029A607047FFF726
:103430001BFC00232370B8E7006402400C0000204E
:1034400000040140900400202DE9F04F00248DB0CD
:10345000CDE90644CDE908445C4B00940A941A6B0C
:10346000DFF874815A4DDFF874B1DFF874A1594F59
:1034700042F010021A631A6B02F010020092009AD6
:1034800001941A6B42F004021A631A6B02F00402F0
:103490000192019A02941A6B42F080021A631A6B2D
:1034A00002F080020292029A03941A6B42F0010227
:1034B0001A631A6B02F001020392039A04941A6BC6
:1034C00042F002021A631A6B02F002020492049A9A
:1034D00005941A6B42F008021A631B6B03F0080391
:1034E00005932246404646F24011059B01F0D6FE68
:1034F00022462846602101F0D1FE2246584640F27D
:10350000014101F0CBFE224650464FF4085101F034
:10351000C5FE224638464FF4A04101F0BFFE012609
:103520004FF4C04306A94046CDE90636CDE908442C
:1035300001F0CAFC0822002306A92846CDE906238B
:103540004FF06009089401F0BFFC284606A9032546
:10355000CDE90764CDF81890099501F0B5FC5846FF
:1035600040F2014306A90693CDE90764099501F0ED
:10357000ABFC50464FF4085306A90693CDE9076407
:10358000099501F0A1FC4FF4A04306A93846069323
:10359000CDE90764099501F097FC40464FF4A0730C
:1035A00006A90693CDE90845079601F08DFC022394
:1035B000079306A907233846CDE90845CDF81890AA
:1035C0000A9301F081FC0DB0BDE8F08F0038024095
:1035D00000000240000C02400008024000040240CB
:1035E0000010024082B00928019108D807EE901A15
:1035F000044BF8EEE77A03EB8003C3ED007A02B0E8
:10360000704700BF781A002003289CBF014B23F8A5
:103610001010704714000020F0B5324A324B334C82
:10362000126883B004F114051A6026465A609A6045
:10363000DA601A615A619A61DA611A625A6200218B
:103640000846FEF7CFF926F8020BAE42F7D100F09C
:10365000C9FE0027064600F0C5FE801BB0F5FA6FD4
:1036600011D2FEF7EFF90197019B632BF3DC019B6D
:1036700001330193019B632BF9DD00F0B3FE801B46
:10368000B0F5FA6FEDD3194E00210A20FEF7AAF922
:1036900026F8020BAE42F7D1FEF7D4F9FEF7D2F9C5
:1036A000FEF7D0F9FEF7CEF9FEF7CCF9FEF7CAF92E
:1036B00000210C20FEF796F924F8020BAC42F7D15A
:1036C000FEF7C0F9FEF7BEF9FEF7BCF9FEF7BAF94E
:1036D000FEF7B8F9FEF7B6F9282003B0BDE8F040D0
:1036E00000F086BEA01A0020781A00209404002062
:1036F00030B5002395B0CDE90A33CDE90C33CDE9DF
:103700000333CDE90533214901930793086C204A1F
:1037100040F080500864096C01F0805101910199DA
:103720000293136843F480431360136801204FF43D
:10373000803103F48043CDE9080102934FF4800106
:103740000224CDE90E41029804210220CDE91201A4
:103750000422A82308A81092119301F0A3FD08B138
:1037600072B6FEE70F220346CDE903244FF4A055BD
:103770004FF4805203A80521CDE90535079201F0E9
:10378000A7FF08B172B6FEE715B030BD00380240A1
:10379000007000402DE9F04F2DED028B764D9FED2E
:1037A000778A774F774EDFF80C92DFF8DCB1DFF8DD
:1037B000088285B000F0F0FDFFF79AFFFFF744FEA6
:1037C000FDF78AFF00F0F0F900F06EFA00F0A0FCBF
:1037D00000F0A6FAFDF724FC00F0F6FC00F000F97A
:1037E00069496A48022200F0C1FEFDF747FFFDF774
:1037F000BDFCFEF78BF9FDF7CDFFFEF7A7FBFFF74A
:103800000BFF00F0EFFD2B6843F080632B602B680B
:10381000002443F0805303942B60CDE900440294CC
:103820005B4B5C4A1B691278C3F3C001317103F032
:1038300008030AB9002B69D199F8003053B1564AF0
:10384000BBF800301380554ABBF8023013800023C8
:1038500089F80030524B1B78002B60D1B4F57A7F89
:1038600007D96B6923F400536B616B6943F48043A0
:103870006B610134A4B200F0B5FD029BC21A132A99
:10388000824611D90399002933D146484FF47A7200
:1038900000F0C0F843484FF47A72042100F0BAF8FF
:1038A0000123CDF808A00393019BAAEB0302092A88
:1038B00010D8009BAAEB0302632AB1D9364B3148DA
:1038C0001A88364B32801A887280FDF7E3FECDF8F5
:1038D00000A0A5E7344B35489A88002100F09AF8FB
:1038E000314B3248DA88042100F094F8CDF804A076
:1038F000DFE72D4B2B481A88002100F08BF82A4B6C
:1039000028485A88042100F085F8C9E7C82000F04B
:103910006FFDFFF781FE1F4A337913708CE7FEF7C6
:1039200003FBDFF898A000240CE0214B33F82410AF
:10393000FEF74CFB0121FEF755F801340A2C2AF85A
:10394000020B0CD017F8241008EB840393ED000A47
:10395000F0EE480AE0B20029E7D1E0B2E8E7FEF76E
:1039600071F86B6943F400536B616B6923F4804316
:1039700000246B617FE700BF000802400AD7A33B29
:1039800068040020641A0020701A002070020020D1
:1039900000000240741A00206C1A00206A1A0020ED
:1039A00090040020D01C002014000020881C00205F
:1039B0006A0400206E1A0020781A00209404002067
:1039C000044B02689A4200D07047034B01221A70E0
:1039D000704700BF002001406E1A002072B6FEE75B
:1039E00010B50A4C0421204602F060F82046084C2D
:1039F000002102F05BF80021204602F057F8204633
:103A00000421BDE8104002F051B800BFD01C0020D6
:103A1000881C002040F6C4139A4228BF1A46B2F50B
:103A2000FA7F036838BF4FF4FA7209B95A637047D6
:103A3000042904D008290CBFDA631A6470479A631A
:103A4000704700BF82B00C4B002100915A6C42F4C9
:103A500080425A645A6C02F480420092009A0191AA
:103A60001A6C42F080521A641B6C03F0805301936D
:103A7000019B02B0704700BF00380240FEE700BF64
:103A8000FEE700BFFEE700BFFEE700BFFEE700BFA6
:103A9000704700BF704700BF704700BF00F096BC82
:103AA000014800F01DBE00BF70020020014802F076
:103AB000AFBC00BF681E0020014801F02FB900BF55
:103AC0000C020020014801F029B900BF081E0020A7
:103AD000014801F023B900BFA81D00200120704754
:103AE00008B503F0B3FE162303604FF0FF3008BDA6
:103AF00008B503F0ABFE16230360FEE770B5161E93
:103B000007DD0C468D19AFF3008004F8010BA542C8
:103B1000F9D1304670BD00BF70B5161E07DD0C46EA
:103B20008D1914F8010BAFF30080A542F9D130468E
:103B300070BD00BF4FF0FF30704700BF4FF400531F
:103B40004B600020704700BF012070470020704785
:103B50000C490D4A0B6810B50C4C121B2BB11844C4
:103B6000904207D80860184610BD094B0B601844F6
:103B70009042F7D903F06AFE0C2303604FF0FF3345
:103B8000184610BDA41A0020000002200004000006
:103B900000200020034AD2F8883043F47003C2F8B2
:103BA0008830704700ED00E010B5002496B0202268
:103BB00021460EA8CDE90344CDE90744CDE90944E7
:103BC000CDE90B440294009406940594019403F00B
:103BD000EAFD3348334B03602223C0E90144C0E9C6
:103BE00004448461C36001F031FE00283DD14FF4EC
:103BF00080532B48029302A902F0C6F8002847D14F
:103C0000274801F0BBFE00283FD1002200232448B2
:103C10006946CDE9002302F061F998BB002000213C
:103C20000022CDE90A0160231D48069306A9CDE9CB
:103C3000072209920C9201F0A1FF00BB184808224C
:103C400006A901F09BFFB8B99FED137B0023144830
:103C500015930EA98DED127BCDE90E33CDE910330E
:103C600002F07CF920B916B010BDFFF7B7FEBEE731
:103C7000FFF7B4FE16B010BDFFF7B0FEE4E7FFF7A4
:103C8000ADFEDBE7FFF7AAFEC8E7FFF7A7FEBCE73C
:103C9000FFF7A4FEB4E700BF000000000020000012
:103CA000601D00200000014000B51A481A4A87B084
:103CB000002302602222CDE90233CDE90433CDE9AD
:103CC0000033C0E90133C0E90323C0E9053301F043
:103CD000BDFD98B94FF480530E48029302A902F03B
:103CE00053F898B9002200230A486946CDE9002319
:103CF00002F0F4F828B907B05DF804FBFFF76EFE98
:103D0000E8E7FFF76BFE07B05DF804FBFFF766FE20
:103D1000E8E700BF181D002000040140000000007B
:103D200010B53D493D4C90B0A7220023C4E90012D4
:103D3000204641F28732CDE90833CDE90A33CDE997
:103D40000C33C4E902320E932361A36101F016FE25
:103D500000BB60200021CDE9080100222F480A9213
:103D600008A90C9201F00AFFD0B92C48042208A936
:103D700001F004FF88B92268294900238A42CDE96D
:103D80000233CDE9043306930DD023498A4221D072
:103D900010B010BDFFF722FEDBE7FFF71FFEEAE7DA
:103DA000FFF71CFEE1E71F4A0093136B1E4843F028
:103DB00010031363136B9FED147B03F01003009348
:103DC00002A903238DED027B009A069301F07CF893
:103DD00010B010BD134A0193136B144843F0020353
:103DE0001363136B9FED0A7B03F00203019302A997
:103DF00009238DED027B019A069301F065F810B05E
:103E000010BD00BFAFF300806000000002000000A2
:103E100000C000000200000000180040881C0020C4
:103E200000400140003802400010024000040240FF
:103E300070B5704A0368934284B0044616D06E4A47
:103E4000934200F09C806D4A934201D004B070BD53
:103E50006B4B002203925A6C42F480325A645B6CC2
:103E600003F480330393039B04B070BD002302F579
:103E70009C320193516C634E41F001015164526CCC
:103E80006149B36002F0010201924FF04062C6E95D
:103E900000124FF480614FF48052C6E9033101985B
:103EA00072614FF480414FF400323046C6E9061388
:103EB0003262736200F006FE002840F09480534D99
:103EC000534926624FF04062C5E900124FF4806109
:103ED0004FF480520023C5E9041228464FF4804174
:103EE0004FF40032C5E90233C5E90613B4632A6210
:103EF0006B6200F0E7FD002872D1464E464A326000
:103F00004FF040624FF4806172604FF480520023A2
:103F1000C6E90412C4E90C55A5634FF480414FF47F
:103F200000323046C6E90233C6E90613AC6332629A
:103F3000736200F0C7FD00284FD1384D38496662E2
:103F40004FF04062C5E900124FF480614FF4805297
:103F50000023C5E9041228464FF480414FF4003293
:103F6000C5E90233C5E90613B4632A626B6200F047
:103F7000A9FD00282ED1E562AC6304B070BD00231A
:103F800002F59A320293516C264D41F002015164C0
:103F9000526C2549AB6002F0020202924FF060625F
:103FA000C5E900124FF480614FF48052C5E9033136
:103FB00002986A614FF480414FF400322846C5E907
:103FC00006132A626B6200F07DFD78B92562AC634E
:103FD00004B070BDFFF702FDCDE7FFF7FFFCACE7D3
:103FE000FFF7FCFC89E7FFF7F9FC68E7FFF7F6FC51
:103FF000ECE700BF00000140000401400040014028
:1040000000380240281C002088640240C81B0020A1
:1040100070640240681B002058640240081B0020A6
:10402000A0640240A81A0020286402400A4B0268DB
:104030009A4200D0704782B003F508330022019203
:104040001A6C42F040021A641B6C03F040030193A7
:10405000019B02B0704700BF001800400000000044
:1040600000B50268244989B000238A42CDE90233B1
:10407000CDE90433069305D020498A421AD009B00D
:104080005DF804FB1E4A0093136B1E4843F01003B7
:104090001363136B9FED147B03F01003009302A9CD
:1040A00003238DED027B009A069300F00DFF09B00B
:1040B0005DF804FB124A0193136B134843F00203AB
:1040C0001363136B9FED0A7B03F00203019302A9B4
:1040D00009238DED027B019A069300F0F5FE09B0ED
:1040E0005DF804FBAFF300806000000002000000F8
:1040F00000C0000002000000004001400018004025
:10410000003802400010024000040240000000009D
:1041100000B52B482B4A8DB00260A72200234260D5
:1041200044F61F62CDE90033CDE90233CDE9043313
:10413000CDE90633CDE90833C0E902320A930361C1
:10414000836101F083FB18BB4FF480531C4800933C
:10415000694601F019FE60BB194801F00FFC28BB4D
:104160009FED157B00221648069204A98DED047B75
:10417000089201F003FDB0B91148042204A901F02E
:10418000FDFC40B90E48FFF76BFF0DB05DF804FB76
:10419000FFF724FCD8E7FFF721FC0948FFF760FF91
:1041A0000DB05DF804FBFFF719FCE5E7FFF716FC1F
:1041B000D6E7FFF713FCCFE7600000000000000027
:1041C000D01C00200040014010B50B480B4C0023D0
:1041D0004FF4E1310C22C0E90041C0E90233C0E9EB
:1041E0000432C0E9063301F0E3FE00B910BDBDE8BA
:1041F0001040FFF7F3BB00BF681E00200010014015
:1042000070B5384B026888B000249A42CDE9024468
:10421000CDE90444069401D008B070BD03F5943391
:1042200000945A6C304E42F010025A645A6C02F0FC
:1042300010020092009A01941A6B42F001021A6374
:104240001B6B03F0010301934FF4C0620223CDE91D
:1042500002230546032207230198244802A9CDE939
:10426000052300F031FE224A4FF00063C6E9002327
:1042700030464FF480624FF48073C6E90244C6E9C9
:104280000424C6E90643C6E9084400F01BFC18BB39
:10429000184C1949EE634FF000620023C4E9001284
:1042A000204640214FF48062C4E90213C4E905337B
:1042B000C4E90733B5632261636200F003FC70B99F
:1042C0000022AC6311462520A56300F097FB252052
:1042D00000F0D0FB08B070BDFFF780FBD8E7FFF718
:1042E0007DFBEDE700100140081E002000000240A9
:1042F00040640240A81D0020B8640240DFF834D0BA
:10430000FFF748FC0C480D490D4A002302E0D45841
:10431000C4500433C4188C42F9D30A4A0A4C00230F
:1043200001E013600432A242FBD303F095FAFFF7D9
:1043300031FA70470000022000000020F001002048
:104340006CB40008F001002000200020FEE700000F
:1043500038B50E4A0E4B1278054618684FF47A733A
:10436000B3FBF2F3B0FBF3F000F092FB08B90F2DB2
:1043700001D9012038BD0446024629464FF0FF30DE
:1043800000F03CFB034B20461D6038BD20000020A0
:104390001C0000202400002008B50B4B1A6842F4D2
:1043A00000721A601A6842F480621A601A6842F455
:1043B00080721A60032000F00FFB0F20FFF7C8FF88
:1043C000FFF740FB002008BD003C0240034A044BBD
:1043D00011681B780B441360704700BFB01E0020AB
:1043E00020000020014B1868704700BFB01E00205D
:1043F00038B50446FFF7F6FF631C054602D0044BB0
:104400001B781C44FFF7EEFF401BA042FAD338BDD7
:1044100020000020002800F09E8038B5056C04467E
:104420003DB1236CDB060CD5002384F83C30012021
:1044300038BDFCF73FFE6564236C84F83C50DB0616
:10444000F2D4236C474A23F4885323F0020343F049
:10445000020323645168236821F44031516051689C
:104460006068014351605A682069A16822F4807233
:104470005A605A6842EA00225A605A68E06822F09C
:1044800040725A605A680A435A609A68A16A22F4D4
:1044900000629A609A6802439A60334A91429A682D
:1044A00051D022F07062E06A9A609A681143996074
:1044B0009A6822F040529A609A6802439A609A6819
:1044C00022F002029A609A68217E42EA41029A60D2
:1044D00094F82020002A40D05A68616A42F40062B1
:1044E0005A605A6822F460425A605A68013942EAB6
:1044F00041325A60DA6AE16922F47002DA62DA6AF9
:10450000013942EA0152DA629A68616922F4007262
:104510009A609A6894F8300042EA40229A609A6859
:1045200022F480629A609A68002042EA81229A60AE
:104530006064236C23F0030343F00103236400232E
:1045400084F83C3038BD22F070629A609A6822F09C
:1045500040529A60B3E7012070475A6822F4006223
:104560005A60C7E7002301400100000F70B50546FF
:1045700090F83C0082B000230128019300F08D8068
:104580002E681346012285F83C20B268D40714D463
:10459000B26842F00102B260434A1068434AA2FB8B
:1045A0000020800C00EB40000190019A2AB1019C90
:1045B000013C019401980028F9D1B268D00503D5D7
:1045C000B26822F48072B260B06810F001004DD081
:1045D000286C20F4E06020F0010040F48070286432
:1045E0007268520505D52A6C22F4405242F480527A
:1045F0002A642A6CA86B12F480521CBF6A6C22F0E9
:1046000006026A64002285F83C200A462849C163F4
:10461000284901642849C1646FF022013160716842
:1046200041F080617160B16841F48071B16006F160
:104630004C0100F0DBFA214B5A68D40620D12A68DD
:104640001F498A4209D001F580718A4228D01D494C
:104650008A4213D15B68DB0610D4936813F0405F85
:104660000CD1936843F08043936007E02B6C43F0D8
:1046700010032B646B6C43F001036B6402B070BDDC
:104680000F4A2B689342F9D19A6812F0405FF5D136
:104690009A6842F080429A60F0E7022002B070BD52
:1046A0005B68D906D9D0E9E71C00002083DE1B43F4
:1046B00019480008CD4600080148000800230140C1
:1046C0000020014000220140704700BF08B5806B08
:1046D000FFF7FAFF08BD00BF704700BF704700BF7B
:1046E000036870B51D685E68AA07044601D5B00668
:1046F0004DD4690701D5320617D4E90701D57206F2
:1047000004D4A90601D5720169D470BD1A68D00716
:10471000F7D5236C43F4803323642046FFF7DCFF96
:1047200023686FF001021A60EBE7226CD00603D415
:10473000226C42F4005222649A6812F4401F1ED187
:104740009A6B12F4401F02D09A68510517D45A6828
:10475000520514D49A6812F0405F10D1227E72B9CB
:104760005A6822F080025A60236C23F48053236439
:10477000236CD80503D4236C43F001032364204643
:1047800000F028F923686FF00C021A60B5E7226C7C
:10479000D10603D4226C42F4007222649A6812F0AB
:1047A000405F14D1227E92B9DA6A12F4700F23D1DD
:1047B0005A6822F020025A60236C23F48073236429
:1047C000236CD80403D4236C43F0010323642046F4
:1047D000FFF7F6F823686FF012021A6089E7626C3F
:1047E0006FF0200542F00202626420461D60FFF770
:1047F00075FF23681D6070BD9A685205E7D4D7E73E
:10480000806B08B540230364436C43F004034364A6
:10481000FFF764FF08BD00BF836B1A6C12F0500FE6
:1048200010B51A6C23D142F4007219681A648A68B0
:1048300012F0405F17D11A7EAAB9CA6A12F4700F3B
:1048400002D08A6850050ED44A6822F020024A60DD
:104850001A6C22F480721A641A6CD10403D41A6C94
:1048600042F001021A641846FFF7AAF810BDD206FA
:1048700004D49B6BBDE81040DB6C18471846FFF76B
:104880002DFF10BD70B590F83C3082B00246012B70
:104890004FF00000019000F09380012382F83C303B
:1048A0000D6813688C68092DA8B228D81E6905EB1D
:1048B000450E4FF0070C0CFA0EFC26EA0C061E61A2
:1048C0001E6904FA0EF434431C614C68062C04EB98
:1048D00084012AD85C6B05394FF01F0C88400CFA14
:1048E00001F124EA01015963596B084358633649C1
:1048F0008B422BD0002082F83C0002B070BD00EB50
:10490000400CDE68ACF11E0C4FF0070E04FA0CF4FC
:104910000EFA0CFC26EA0C06DE60DE683443DC602E
:104920004C68062C04EB8401D4D90C2C34D81C6BB5
:1049300023391F26884006FA01F124EA0101196390
:10494000196B0843204918638B42D3D1122D30D004
:10495000A5F11003012BCDD81C494B68102D43F451
:1049600000034B60C6D11A4B01F146711B6801F57B
:104970002E3101F28331A1FB03139B0C03EB830364
:104980005B000193019B002BB4D0019B013B019381
:10499000019B002BF9D1ADE7DC6A41391F26884025
:1049A00006FA01F124EA0101D962D96A0843D86202
:1049B0009DE7D1F8043343F48003C1F8043399E749
:1049C000022002B070BD00BF002001400023014062
:1049D0001C000020704700BF0749CA6803024FF659
:1049E000FF0003F4E0630240134343F0BF6343F46A
:1049F0000033CB60704700BF00ED00E01B4BDB686D
:104A0000C3F3022300B5C3F1070EBEF1040F03F197
:104A1000040C28BF4FF0040EBCF1060F1CD9A3F103
:104A2000030C4FF0FF3303FA0CF322EA03024FF0BA
:104A3000FF3303FA0EF321EA030303FA0CF31343E3
:104A40001B010028DBB20ADB00F1604000F5614089
:104A500080F800335DF804FB00229446E7E7044A3F
:104A600000F00F00024413765DF804FB00ED00E057
:104A7000FCEC00E0002807DB044A4109012300F0B8
:104A80001F00834042F82130704700BF00E100E082
:104A90000138B0F1807F01D30120704710B44FF08E
:104AA000E023074C58614FF0F00C84F823C000223B
:104AB000072110469A615DF8044B1961704700BFE9
:104AC00000ED00E038B50446FFF78CFC002C6DD0FB
:104AD00023680022022184F8351084F834201A68F3
:104AE00022F0010205461A6005E0FFF77BFC431B3C
:104AF000052B37D823681A68D107F6D4D4E90120EA
:104B0000E16802430A43D4E90451A0692A430A43F5
:104B1000E1691D6802430A4331492940256A2A4355
:104B20000A43616A042924D01A605A6922F00702F4
:104B30001143D8B22B4A59611038A2FB0052120916
:104B400029496FF30903895CE1655F2888BF043355
:104B50003F228A40A36500209A600123606584F8A3
:104B6000353038BD03232022626584F8353018467D
:104B700038BDD4E90B512943114319605969A26A20
:104B800021F00701114341F00401002DD1D078B18B
:104B9000B0F5005F16D0022A03D9032AC9D1EA0171
:104BA000C7D540220123626584F83530012038BD25
:104BB000012A03D032F00202BBD1F0E7B5F1C07F89
:104BC000B7D1EEE7032AB4D801A050F822F000BF15
:104BD000A34B00089F4B0008A34B0008BD4B0008E7
:104BE0003F8010F0ABAAAAAA28B0000870B490F8D1
:104BF0003440856D012C0AD090F835404FF0010CFF
:104C0000644580F834C005D0002380F83430022099
:104C100070BC7047022680F835600468002646653F
:104C2000266826F48026266063608368402B0EBFCA
:104C3000A260A160E260C26D08BFE1603F239340C3
:104C4000AB602368026C43F0160323601AB123683B
:104C500043F008032360236843F00103002023602E
:104C600070BC704770B50446866DFFF7BBFB94F8C7
:104C70003530022B06D080236365002384F834305E
:104C8000012070BD23681A6822F016021A605A6962
:104C900022F080025A61226C054642B31A6822F063
:104CA00008021A601A6822F001021A6005E0FFF794
:104CB00099FB431B052B10D823681B6813F00103D5
:104CC000F5D1E16D3F228A40184601210023B260F0
:104CD00084F8351084F8343070BD032320226265D7
:104CE000184684F83530002384F8343070BDA26C47
:104CF000002AD3D1D6E700BF90F83530022B03D07D
:104D000080234365012070470268052380F8353011
:104D1000136823F00103002013607047F0B583B0DF
:104D2000674A876D166800230193C36D3D680822AA
:104D30009A402A42044603D001680868400778D4A4
:104D400001229A402A4203D02168496908066AD4A0
:104D500004229A402A4203D02168096889075CD45A
:104D600010229A402A4203D021680868000741D4E3
:104D700020229A402A4214D021680868C00610D523
:104D8000BA6094F83520052A63D00B6813F4802F9D
:104D90000B687ED0190340F18980E36B0BB120468C
:104DA0009847636D23B3636DDA071AD522684549C6
:104DB000052384F835301368A1FB061623F00103A0
:104DC000B60A136002E01368DB0704D5019B0133C8
:104DD000B3420193F7D90122002384F8352084F8E7
:104DE0003430E36C23B1204603B0BDE8F0401847EF
:104DF00003B0F0BDBA600A6812F4802F0A6822D1AD
:104E0000D20503D40A6822F008020A60226C002A44
:104E1000AED020469047E36DAAE7BA60626D42F0DB
:104E2000040262659CE7BA60626D42F0020262654C
:104E30008EE7086820F004000860BA60626D42F0F6
:104E4000010262657CE71103E0D5A26C002AE0D183
:104E50008EE70A6822F016020A604A6922F0800290
:104E60004A61226C3AB30A6822F008020A603F22C3
:104E700002FA03F3216DBB600122002384F8352080
:104E800084F834300029B3D0204603B0BDE8F040A8
:104E9000084713F4807380D10A6822F010020A6078
:104EA000012284F8352084F8343076E7636C002BD7
:104EB0007FF475AF75E7A26C002AD4D1D7E700BFA5
:104EC0001C000020B5814E1B2DE9F04FA44A0B6851
:104ED000904285B04FF0000200F0D480DFF890825D
:104EE0004FF0010B8A4603E00132102A00F09E8049
:104EF0000BFA02F101EA03069943F5D1DAF804400E
:104F000004F0030C510003250CF1FF378D40012FF5
:104F10006FEA050550D9BCF1030F40F0A581076881
:104F20000CFA01F13D40294314F4403F0160DBD00D
:104F30008C4D00210391696C41F480416964696C76
:104F400001F480410391039922F0030101F18041B2
:104F500001F59C3102F003078D68BF004FF00F0C84
:104F60000CFA07FC25EA0C0E7F4DA84261D07F4D5C
:104F7000A84200F05681DFF8FCC1604500F058817E
:104F8000DFF8F4C1604500F06181DFF8F0C16045F1
:104F900000F06381DFF8E8C1604500F05081DFF880
:104FA000E4C160450CBF4FF0070C4FF0080C0CFA41
:104FB00007F74EEA070542E0876807EA050EDAF8C8
:104FC0000C708F4047EA0E078760476827EA060E95
:104FD000C4F30017974047EA0E074760C76807EA1F
:104FE000050EDAF808708F4047EA0E07BCF1020F91
:104FF000C76094D14FEAD20900EB890902F0070E8D
:10500000D9F820700097DAF810704FEA8E0E07FA80
:105010000EF701970F2707FA0EFE009F27EA0E0EE4
:10502000019F47EA0E07C9F8207078E705B0BDE890
:10503000F08F4FF0010C0CFA07F74EEA07058D6070
:10504000D8F80810F543E70254BF29403143C8F8A7
:105050000810D8F80C10A70254BF29403143C8F8F3
:105060000C10D8F80410A70354BF29403143C8F8E6
:105070000410D8F80010E40354BF29403143C8F8A5
:10508000001031E7DFF8DCB04FF0010A02E0013236
:10509000102ACBD00AFA02F403EA04069C43F6D1A4
:1050A0004D685400032707FA04FC05F003086FEA73
:1050B0000C0908F1FF3CBCF1010F65D9B8F1030FF1
:1050C00040F0DC80D0F800C008FA04F40CEA090CC7
:1050D00044EA0C0415F4403F0460D8D00024039443
:1050E000DBF8444044F48044CBF84440DBF84440CF
:1050F00004F480440394039C22F0030404F18044EC
:1051000004F59C3402F0030CD4F808E00F274FEAB2
:105110008C0C07FA0CFC2EEA0C0CC4F808C0144CDA
:10512000EF02A4686FEA060C79D404EA0C04104F6D
:10513000BC60FC68AF0270D404EA0C040C4FFC6045
:105140007C68AF0367D40CEA0404094FED037C606C
:105150003C685ED40CEA0404054D2C6097E700BF60
:1051600000000240003802400004024000080240F3
:10517000003C0140000C02400010024000140240BC
:1051800000180240001C0240D0F808E0CF6809EA8D
:105190000E0E07FA04FC4CEA0E0CC0F808C0D0F85A
:1051A00004E0C5F3001C2EEA060E0CFA02FC4CEAE1
:1051B0000E0CC0F804C0D0F80CE08F6809EA0E0E9F
:1051C00007FA04FC4CEA0E0CB8F1020FC0F80CC050
:1051D0007FF478AF4FEAD20C4FEA8C0C0CF1804C84
:1051E0000CF5003C02F0070EDCF8207000970F6908
:1051F0004FEA8E0E07FA0EF701970F2707FA0EFEF9
:10520000009F27EA0E0E019F47EA0E0ECCF820E021
:1052100058E73443A0E7344397E734438EE73443F9
:1052200085E74FF0020C0CFA07F74EEA070506E790
:105230004FF0030C0CFA07F74EEA0705FFE64FF0B4
:10524000060C0CFA07F74EEA0705F8E64FF0040CD7
:105250000CFA07F74EEA0705F1E64FF0050C0CFAD9
:1052600007F74EEA0705EAE6C76807EA050EDAF827
:1052700008708F4047EA0E07C76050E6DFF818C095
:105280008F68DCF80CE0A74009EA0E0E47EA0E0E24
:10529000CCF80CE016E700BF0000024002B9090498
:1052A00081617047002800F0D8812DE9F041036842
:1052B000DD0782B004462FD59D498A6802F00C02B2
:1052C000042A00F0EC808A6802F00C02082A00F040
:1052D000E2806368B3F5803F00F0EB80B3F5A02F68
:1052E00000F07381924D2A6822F480322A602A6885
:1052F00022F480222A60002B40F0E080FFF772F851
:10530000064605E0FFF76EF8801B642800F2008176
:105310002B689F03F6D423689D0728D5844A91689B
:1053200011F00C0F00F09B80916801F00C0108292E
:1053300000F09180E368002B00F00C817D4B7C4EE7
:1053400001221A60FFF74EF8054605E0FFF74AF81C
:10535000401B022800F2DC8033689F07F6D53368D3
:10536000226923F0F80343EAC203336023681A0773
:105370005CD45D073AD56E4A136C13F0805340F04D
:1053800088800193136C43F080531364136C03F013
:1053900080530193019B0125674E3368D80540F186
:1053A000A780A368012B00F0B780052B00F01D81BA
:1053B0005F4E326F22F001023267326F22F0040238
:1053C0003267002B40F0AD80FFF70CF841F28838CF
:1053D000074605E0FFF706F8C01B404500F298803D
:1053E000336F9B07F6D4002D40F0F980A369CBB151
:1053F0004F4DAA6802F00C02082A00F0BC80022B74
:105400004C4B4FF000021A6600F0F980FEF7EAFFFD
:10541000044604E0FEF7E6FF001B022878D82B685C
:105420009B01F7D4002002B0BDE8F0816369FBB1B5
:10543000404B3F4E0122C3F8802EFEF7D3FF0546B6
:1054400004E0FEF7CFFF401B022861D8736F9B0773
:10545000F7D523688DE7526851023FF56BAF344AA8
:105460001268920738D5E268012A35D00120DAE7C0
:10547000304A2F4EC2F8803EFEF7B4FF054604E0E6
:10548000FEF7B0FF401B022842D8736F9F07F7D486
:10549000DFE7002580E74A6851027FF51AAF244A0A
:1054A000126892037FF538AF6268002A7FF434AF48
:1054B000DCE71F4A136843F480331360FEF792FF62
:1054C0001B4E054604E0FEF78DFF401B64281FD8E5
:1054D00033689B03F7D51EE7154920690A6822F057
:1054E000F80242EAC0020A601A077FF542AF9DE760
:1054F000336843F480733360FEF774FF0746336804
:10550000D9053FF54EAFFEF76DFFC01B0228F6D957
:10551000032002B0BDE8F081054A136F43F0010398
:105520001367FEF75FFF024F064641F288380AE034
:10553000003802400000474200700040FEF752FF72
:10554000801B4045E4D83B6F9A07F7D5002D3FF408
:105550004DAF44E0424A434E1360FEF743FF054619
:1055600004E0FEF73FFF401B0228D1D833689907BB
:10557000F7D42368FBE6012B3FF478AF6B68E26950
:1055800003F4800191427FF471AF226A03F03F017E
:1055900091427FF46BAF616A47F6C0721A40B2EB7A
:1055A000811F7FF463AFA26A520803F44031013ACD
:1055B000B1EB024F7FF45AAFE26A03F07063B3EBD2
:1055C000026F14BF012000202DE7264B1A6842F419
:1055D00080221A601A6842F480321A606EE7214A0B
:1055E000136C23F08053136400E71E4B1A6F42F0D4
:1055F00004021A671A6F42F001021A6791E7FEF778
:10560000F1FE064605E0FEF7EDFE801B02283FF6A0
:105610007FAF2B689901F6D4D4E90731626A0B4356
:1056200043EA8213D4E90A2052080D4943EA006391
:10563000013A43EA024301226B600A66FEF7D2FE9A
:10564000084D044605E0FEF7CDFE001B02283FF69C
:105650005FAF2B689A01F6D5E4E60120704700BFE2
:105660000000474200380240164908B58B6803F035
:105670000C03042B1BD0082B01D0134808BD4A682B
:105680004B68496813F4800302F03F0211D10E48C1
:10569000C1F38811A1FB0001FBF7F6FA094B5B6827
:1056A000C3F3014301335B00B0FBF3F008BD0748CF
:1056B00008BD0648C1F388110023A1FB0001FBF7D8
:1056C000E3FAEBE7003802400024F40000127A000D
:1056D000002800F08780484A136803F007038B42D4
:1056E0002DE9F0410D46044609D2CBB21370136880
:1056F00003F007038B4202D00120BDE8F08123684C
:10570000980714D5590704D53C498A6842F4E052F9
:105710008A601A0704D539498A6842F460428A606F
:105720003649A0688A6822F0F00202438A60DF07E7
:1057300021D56268012A57D0931E012B2F4B1B687D
:105740004DD99907D8D52D4EB36823F003031343E1
:10575000B360FEF747FE41F28838074604E0FEF7E3
:1057600041FEC01B404544D8B368626803F00C0397
:10577000B3EB820FF3D1204A136803F00703AB4267
:1057800006D9EBB21370136803F00703AB42B3D131
:1057900023685A0706D51949E0688A6822F4E0525E
:1057A00002438A601B0707D5144A2169936823F4D2
:1057B000604343EAC1039360FFF756FF0F4A104C62
:1057C00092681049C2F303120346A25C0E48D3400C
:1057D00000680B60FEF7BCFD0020BDE8F081980179
:1057E000B1D489E701207047044B1B689E03AAD4FB
:1057F00082E7032081E700BF003C024000380240FE
:1058000018B000081C00002024000020044B0549AB
:105810009B68054A0868C3F38223D35CD84070476D
:10582000003802401C00002010B00008044B05495D
:105830009B68054A0868C3F34233D35CD84070477D
:10584000003802401C00002010B00008002800F0C2
:10585000828070B590F83D30044603F0FF02002BC3
:1058600074D02268424EA069E5686168022384F81A
:105870003D30B242136859D0B2F1804F2CD0A6F51A
:105880007C46B24228D006F58066B24224D006F5A6
:105890008066B24220D006F57846B24246D0354EF8
:1058A000B2421DD006F58066B24219D006F5806678
:1058B000B24215D0A6F59836B2424ED006F58066B3
:1058C000B2420DD006F58066B24209D023F08003C3
:1058D000D562184391620CE0A66823F0700333434D
:1058E0002669D56223F44073334323F080031843C1
:1058F00091621168012341F004011160536110604D
:1059000084F8463084F83E3084F83F3084F84030E4
:1059100084F8413084F8423084F8433084F84430CD
:1059200084F8453084F83D30002070BDA66823F02F
:10593000700333432669D56223F44073334323F065
:1059400080039162184363691363D2E780F83C20B7
:10595000FEF76EFA85E701207047266923F440734D
:10596000334323F080031843034BDD629962C0E7A1
:10597000000001400040014000180040002800F0F5
:10598000828070B590F83D30044603F0FF02002B92
:1059900074D02268424EA069E5686168022384F8E9
:1059A0003D30B242136859D0B2F1804F2CD0A6F5E9
:1059B0007C46B24228D006F58066B24224D006F575
:1059C0008066B24220D006F57846B24246D0354EC7
:1059D000B2421DD006F58066B24219D006F5806647
:1059E000B24215D0A6F59836B2424ED006F5806682
:1059F000B2420DD006F58066B24209D023F0800392
:105A0000D562184391620CE0A66823F0700333431B
:105A10002669D56223F44073334323F0800318438F
:105A200091621168012341F004011160536110601B
:105A300084F8463084F83E3084F83F3084F84030B3
:105A400084F8413084F8423084F8433084F844309C
:105A500084F8453084F83D30002070BDA66823F0FE
:105A6000700333432669D56223F44073334323F034
:105A700080039162184363691363D2E780F83C2086
:105A8000FEF7D4FA85E701207047266923F44073B6
:105A9000334323F080031843034BDD629962C0E770
:105AA00000000140004001400018004069BB90F830
:105AB0003E30012B35D1022380F83E30036801F0DF
:105AC0001F01186A01228A4020EA02001862186A3F
:105AD000254902438B421A6225D0244A934222D0A0
