:020000040800F2
:100000000000022005540008E1420008E94200080F
:10001000F1420008F9420008014300080000000016
:10002000000000000000000000000000094300087C
:100030001743000800000000254300083343000870
:1000400055540008555400085554000855540008EC
:1000500055540008555400085554000855540008DC
:1000600055540008555400085554000855540008CC
:1000700055540008555400085554000855540008BC
:1000800041430008554300085554000855540008E2
:10009000555400085554000855540008555400089C
:1000A000555400085554000855540008555400088C
:1000B000555400085554000855540008555400087C
:1000C000555400085554000855540008555400086C
:1000D0005554000869430008A5430008555400081A
:1000E000555400085554000855540008555400084C
:1000F000555400085554000855540008555400083C
:10010000555400085554000855540008555400082B
:10011000555400085554000855540008555400081B
:1001200055540008213900087D430008E9360008CD
:10013000B1350008555400085554000855540008BE
:1001400055540008555400085554000855540008EB
:1001500095340008053800089143000855540008FC
:1001600055540008555400085554000855540008CB
:10017000555400085554000855540008000000006C
:08018000555400085554000815
:1001900010B5054C237833B9044B13B10448AFF3C1
:1001A00000800123237010BDF40100200000000036
:1001B0007CE6000808B5034B1BB103490348AFF3C5
:1001C000008008BD00000000F80100207CE6000867
:1001D00010F8012B11F8013B012A28BF9A42F7D0F1
:1001E000D01A70470000000000000000000000006E
:1001F00001F0FF01102A2BDB10F0070F08D010F8D8
:10020000013B013A8B422DD010F0070F42B3F6D1DB
:10021000F0B441EA012141EA014122F007047FF0F4
:1002200000070023F0E80256083C85EA010586EA4B
:10023000010685FA47F5A3FA87F586FA47F6A5FA87
:1002400087F68EB9EED1F0BC01F0FF0102F0070293
:1002500032B110F8013B013A83EA010313B1F8D13E
:100260000020704701387047002D06BF354603381F
:10027000073815F0010F07D1013015F4807F02BF58
:10028000013015F4C03F0130F0BC0138704700BFA9
:10029000034613F8012B002AFBD1181A01387047C6
:1002A00081F0004102E000BF83F0004330B54FEA27
:1002B00041044FEA430594EA050F08BF90EA020F94
:1002C0001FBF54EA000C55EA020C7FEA645C7FEA27
:1002D000655C00F0E2804FEA5454D4EB5555B8BF4A
:1002E0006D420CDD2C4480EA020281EA030382EABB
:1002F000000083EA010180EA020281EA0303362D4D
:1003000088BF30BD11F0004F4FEA01314FF4801C1F
:100310004CEA113102D0404261EB410113F0004F31
:100320004FEA03334CEA133302D0524263EB4303E8
:1003300094EA050F00F0A780A4F10104D5F1200E86
:100340000DDB02FA0EFC22FA05F2801841F10001E1
:1003500003FA0EF2801843FA05F359410EE0A5F1B5
:1003600020050EF1200E012A03FA0EFC28BF4CF0E6
:10037000020C43FA05F3C01851EBE37101F000459C
:1003800007D54FF0000EDCF1000C7EEB00006EEBA9
:100390000101B1F5801F1BD3B1F5001F0CD3490833
:1003A0005FEA30004FEA3C0C04F101044FEA44528A
:1003B00012F5800F80F09A80BCF1004F08BF5FEA11
:1003C000500C50F1000041EB045141EA050130BDF1
:1003D0005FEA4C0C404141EB0101013C28BFB1F503
:1003E000801FE9D291F0000F04BF01460020B1FA4E
:1003F00081F308BF2033A3F10B03B3F120020CDA21
:100400000C3208DD02F1140CC2F10C0201FA0CF0FE
:1004100021FA02F10CE002F11402D8BFC2F1200C63
:1004200001FA02F120FA0CFCDCBF41EA0C01904019
:10043000E41AA2BF01EB0451294330BD6FEA040462
:100440001F3C1CDA0C340EDC04F11404C4F120024D
:1004500020FA04F001FA02F340EA030021FA04F35F
:1004600045EA030130BDC4F10C04C4F1200220FAB6
:1004700002F001FA04F340EA0300294630BD21FAF4
:1004800004F0294630BD94F0000F83F4801306BFBA
:1004900081F480110134013D4EE77FEA645C18BFAE
:1004A0007FEA655C29D094EA050F08BF90EA020F45
:1004B00005D054EA000C04BF1946104630BD91EA3D
:1004C000030F1EBF0021002030BD5FEA545C05D140
:1004D0004000494128BF41F0004130BD14F580047F
:1004E0003CBF01F5801130BD01F0004545F0FE41F3
:1004F00041F470014FF0000030BD7FEA645C1ABF28
:10050000194610467FEA655C1CBF0B46024650EA5E
:10051000013406BF52EA033591EA030F41F400218A
:1005200030BD00BF90F0000F04BF0021704730B510
:100530004FF4806404F132044FF000054FF00001E5
:1005400050E700BF90F0000F04BF0021704730B5A6
:100550004FF4806404F1320410F0004548BF40427B
:100560004FF000013EE700BF42004FEAE2014FEAD0
:1005700031014FEA02701FBF12F07F4393F07F4FAB
:1005800081F06051704732F07F4208BF704793F0AE
:100590007F4F04BF41F40021704730B54FF46074C1
:1005A00001F0004521F000411CE700BF50EA0102C4
:1005B00008BF704730B54FF000050AE050EA01026D
:1005C00008BF704730B511F0004502D5404261EBDD
:1005D00041014FF4806404F132045FEA915C3FF41E
:1005E000D8AE4FF003025FEADC0C18BF03325FEABB
:1005F000DC0C18BF033202EBDC02C2F1200300FA6C
:1006000003FC20FA02F001FA03FE40EA0E0021FA90
:1006100002F11444BDE600BF70B54FF0FF0C4CF47E
:10062000E06C1CEA11541DBF1CEA135594EA0C0F30
:1006300095EA0C0F00F0DEF82C4481EA030621EA6B
:100640004C5123EA4C5350EA013518BF52EA0335A6
:1006500041F4801143F4801338D0A0FB02CE4FF058
:100660000005E1FB02E506F00042E0FB03E54FF088
:100670000006E1FB03569CF0000F18BF4EF0010E80
:10068000A4F1FF04B6F5007F64F5407404D25FEA7C
:100690004E0E6D4146EB060642EAC62141EA55512F
:1006A0004FEAC52040EA5E504FEACE2EB4F1FD0C71
:1006B00088BFBCF5E06F1ED8BEF1004F08BF5FEAEF
:1006C000500E50F1000041EB045170BD06F00046A1
:1006D00046EA010140EA020081EA0301B4EB5C044E
:1006E000C2BFD4EB0C0541EA045170BD41F4801146
:1006F0004FF0000E013C00F3AB8014F1360FDEBF6B
:10070000002001F0004170BDC4F10004203C35DA46
:100710000C341BDC04F11404C4F1200500FA05F3C9
:1007200020FA04F001FA05F240EA020001F000426A
:1007300021F0004110EBD37021FA04F642EB0601E0
:100740005EEA430E08BF20EAD37070BDC4F10C040A
:10075000C4F1200500FA04F320FA05F001FA04F2CE
:1007600040EA020001F0004110EBD37041F10001BA
:100770005EEA430E08BF20EAD37070BDC4F12005C5
:1007800000FA05F24EEA020E20FA04F301FA05F22D
:1007900043EA020321FA04F001F0004121FA04F2D5
:1007A00020EA020000EBD3705EEA430E08BF20EAA5
:1007B000D37070BD94F0000F0FD101F000464000DF
:1007C00041EB010111F4801F08BF013CF7D041EA61
:1007D000060195F0000F18BF704703F00046520065
:1007E00043EB030313F4801F08BF013DF7D043EA36
:1007F0000603704794EA0C0F0CEA135518BF95EAEC
:100800000C0F0CD050EA410618BF52EA4306D1D172
:1008100081EA030101F000414FF0000070BD50EA91
:10082000410606BF1046194652EA430619D094EA1B
:100830000C0F02D150EA013613D195EA0C0F05D105
:1008400052EA03361CBF104619460AD181EA030159
:1008500001F0004141F0FE4141F470014FF0000011
:1008600070BD41F0FE4141F4780170BD70B54FF0AC
:10087000FF0C4CF4E06C1CEA11541DBF1CEA13552C
:1008800094EA0C0F95EA0C0F00F0A7F8A4EB05040E
:1008900081EA030E52EA03354FEA013100F0888005
:1008A0004FEA03334FF0805545EA131343EA1263CE
:1008B0004FEA022245EA111545EA10654FEA002683
:1008C0000EF000419D4208BF964244F1FD0404F53C
:1008D000407402D25B084FEA3202B61A65EB030598
:1008E0005B084FEA32024FF480104FF4002CB6EB55
:1008F000020E75EB030E22BFB61A754640EA0C00D5
:100900005B084FEA3202B6EB020E75EB030E22BF14
:10091000B61A754640EA5C005B084FEA3202B6EB55
:10092000020E75EB030E22BFB61A754640EA9C0014
:100930005B084FEA3202B6EB020E75EB030E22BFE4
:10094000B61A754640EADC0055EA060E18D04FEAA2
:10095000051545EA16754FEA06164FEAC30343EA42
:1009600052734FEAC2025FEA1C1CC0D111F4801F0F
:100970000BD141EA00014FF000004FF0004CB6E708
:1009800011F4801F04BF01430020B4F1FD0C88BFA7
:10099000BCF5E06F3FF6AFAEB5EB030C04BFB6EBB2
:1009A000020C5FEA500C50F1000041EB045170BDA5
:1009B0000EF0004E4EEA113114EB5C04C2BFD4EBD2
:1009C0000C0541EA045170BD41F480114FF0000E56
:1009D000013C90E645EA060E8DE60CEA135594EAD2
:1009E0000C0F08BF95EA0C0F3FF43BAF94EA0C0FD5
:1009F0000AD150EA01347FF434AF95EA0C0F7FF44A
:100A000025AF104619462CE795EA0C0F06D152EA9D
:100A100003353FF4FDAE1046194622E750EA410681
:100A200018BF52EA43067FF4C5AE50EA41047FF492
:100A30000DAF52EA43057FF4EBAE12E74FF0FF3CF7
:100A400006E000BF4FF0010C02E000BF4FF0010CC8
:100A50004DF804CD4FEA410C7FEA6C5C4FEA430C41
:100A600018BF7FEA6C5C1BD001B050EA410C0CBF90
:100A700052EA430C91EA030F02BF90EA020F0020F2
:100A8000704710F1000F91EA030F58BF994208BF59
:100A900090422CBFD8176FEAE37040F00100704716
:100AA0004FEA410C7FEA6C5C02D150EA013C07D16D
:100AB0004FEA430C7FEA6C5CD6D152EA033CD3D0B8
:100AC0005DF8040B704700BF8446104662468C46B2
:100AD0001946634600E000BF01B5FFF7B7FF0028E5
:100AE00048BF10F1000F01BD4DF808EDFFF7F4FF0E
:100AF0000CBF012000205DF808FB00BF4DF808ED99
:100B0000FFF7EAFF34BF012000205DF808FB00BFBB
:100B10004DF808EDFFF7E0FF94BF012000205DF8DD
:100B200008FB00BF4DF808EDFFF7CEFF94BF012092
:100B300000205DF808FB00BF4DF808EDFFF7C4FF8B
:100B400034BF012000205DF808FB00BF4FEA410CD4
:100B50007FEA6C5C02D150EA013C0AD14FEA430CB7
:100B60007FEA6C5C02D152EA033C02D14FF00000F4
:100B700070474FF0010070474FEA410212F5001232
:100B800015D211D56FF47873B3EB625212D94FEAD4
:100B9000C12343F0004343EA505311F0004F23FABE
:100BA00002F018BF404270474FF00000704750EA13
:100BB000013005D111F0004008BF6FF000407047D0
:100BC0004FF00000704700BF4A0011D212F500122A
:100BD00011D20DD56FF47873B3EB62520ED44FEA95
:100BE000C12343F0004343EA505323FA02F0704715
:100BF0004FF00000704750EA013002D14FF0FF3053
:100C000070474FF0000070474FEA4102B2F1E043F5
:100C100024BFB3F5001CDCF1FE5C0DD901F0004CE3
:100C20004FEAC0024CEA5070B2F1004F40EB830033
:100C300008BF20F00100704711F0804F21D113F15F
:100C40003872BCBF01F00040704741F480114FEA98
:100C50005252C2F11802C2F1200C10FA0CF320FA21
:100C600002F018BF40F001004FEAC1234FEAD3233E
:100C700003FA0CFC40EA0C0023FA02F34FEA4303A8
:100C8000CCE77FEA625307D150EA01331EBF4FF031
:100C9000FE4040F44000704701F0004040F0FE404C
:100CA00040F40000704700BF53B94AB9002908BF9B
:100CB00000281CBF4FF0FF314FF0FF3000F0BEB9ED
:100CC000ADF1080C6DE904CE00F03CF8DDF804E06D
:100CD000DDE9022304B0704738B500220023044642
:100CE0000D46FFF70BFF28B920462946BDE83840DE
:100CF00000F00AB8204605F1004100F005F8404236
:100D000061EB410138BD00BFD0B50C4B0022064657
:100D10000F46FFF781FCFFF757FF0446FFF702FC81
:100D2000074B0022FFF778FC02460B463046394657
:100D3000FFF7BAFAFFF748FF2146D0BD0000F03DAB
:100D40000000F0412DE9F047089D8E460446884694
:100D5000002B4AD18A42174662D9B2FA82F64EB1C6
:100D6000C6F1200301FA06F820FA03F3B74043EA7C
:100D70000808B4404FEA174E1FFA87FCB8FBFEF193
:100D8000230C0EFB118843EA084301FB0CF29A4244
:100D900009D9FB1801F1FF3080F0EA809A4240F255
:100DA000E78002393B449A1AA3B2B2FBFEF00EFB75
:100DB000102243EA024300FB0CFC9C4509D9FB18B6
:100DC00000F1FF3280F0D6809C4540F2D3803B4456
:100DD000023840EA0140A3EB0C0300211DB1F340AF
:100DE0000022C5E90032BDE8F0878B4205D90DB17C
:100DF000C5E9000100210846F5E7B3FA83F10029AF
:100E000046D1734502D3824200F20581841A6EEB0B
:100E1000030201209046002DE5D0C5E90048E2E735
:100E2000002A00F09080B2FA82F6002E40F0A480F2
:100E30008A1A030C4FEA174E80B2BCB20121B2FBF2
:100E4000FEFC0EFB1C2243EA024304FB0CF29A4216
:100E500007D9FB180CF1FF3802D29A4200F2E08069
:100E6000C4469B1AB3FBFEF20EFB123340EA034367
:100E700002FB04F49C4207D9FB1802F1FF3002D2B6
:100E80009C4200F2CA8002461B1B42EA0C40A5E7C6
:100E9000C1F120068B4022FA06F71F430EFA01F437
:100EA00020FA06F32EFA06FE4FEA1749234300FA0A
:100EB00001F81FFA87FCBEFBF9F01C0C09FB10EED1
:100EC00044EA0E4400FB0CFEA64502FA01F209D9E1
:100ED0003C1900F1FF3A80F09C80A64540F29980D1
:100EE00002383C44A4EB0E041FFA83FEB4FBF9F372
:100EF00009FB13444EEA044403FB0CFCA44508D947
:100F00003C1903F1FF3E80F08280A4457FD9023B6B
:100F10003C4443EA0040A4EB0C04A0FB02EC644513
:100F20007346E14662D35FD05DB1B8EB030264EB78
:100F3000090404FA06F622FA01F31E43CC40C5E97F
:100F4000006400214FE7B1FBF2FC010C41EA0E41C5
:100F500080B240EA01423B4638463C46B846BE466F
:100F60002026B1FBF7F1A2EB080241EA0C4166E74B
:100F7000014618E710462CE7C6F120022EFA02F3CC
:100F8000B740B14020FA02F24FEA174E0A43B3FBD2
:100F9000FEF8BCB20EFB1833110C41EA034108FB0A
:100FA00004F9B04089454FEA104380B23ED9791820
:100FB00008F1FF3C01D289451FD8A1EB0901B1FB23
:100FC000FEF909FB04F80EFB191192B242EA014244
:100FD000424529D2BA1809F1FF31C4D24245C2D2E2
:100FE000A9F102013A44BEE7F0459DD2BEEB0203EF
:100FF0006CEB070C0138E14696E7A7EB0909494479
:10100000A8F1020CB1FBFEF909FB04F8DBE773461B
:101010007FE7504666E70846FDE63B44023A33E781
:10102000ACF1020C3B441CE749469CE7A1EB0901EB
:10103000C446B1FBFEF909FB04F8C4E7704700BFE2
:1010400080B584B000AF3B4600221A605A609A60B7
:10105000DA60214B214A1A601F4B4FF480325A60EC
:101060001D4B00229A601C4B00221A611A4B002271
:101070001A76194B002283F82020174B0022DA62DF
:10108000154B174A9A62144B0022DA60124B012268
:10109000DA61114B002283F830200F4B01225A6194
:1010A0000D4804F06FFA0346002B01D003F09AF8C4
:1010B00000233B6001237B600023BB603B46194655
:1010C000054804F00DFC0346002B01D003F08AF81C
:1010D00000BF1037BD4680BD100200200020014037
:1010E0000100000F80B58AB000AF786007F11403EB
:1010F00000221A605A609A60DA601A617B681B6885
:10110000174A934227D100233B61164B5B6C154A6B
:1011100043F480735364134B5B6C03F480733B6143
:101120003B690023FB600F4B1B6B0E4A43F001032E
:1011300013630C4B1B6B03F00103FB60FB6805237F
:101140007B610323BB610023FB6107F11403194694
:10115000054805F0F7FA00BF2837BD4680BD00BF3F
:1011600000200140003802400000024080B58AB0F3
:1011700000AF78607B680233BB6100237B623CE098
:101180007B6ABA6913441B78FB7400233B62FB7CC7
:10119000632B2ED9FB7CC82B2BD8FB7C963BFB60AA
:1011A000FB68002B0EDDFA6813461B019B1ADB005F
:1011B0003B623B6A41F27072934212DD41F27073FE
:1011C0003B620EE0FB68002B0BDAFA6813461B014A
:1011D0009B1ADB003B623B6A1D4A934201DA1C4BBF
:1011E0003B6200BF7B6ADBB2396A184602F004FD3D
:1011F00000E000BF7B6A01337B627B6A092BBFDDA5
:101200000023FB6117E0FB690A331A46BB691344EC
:101210001B78FB75FB7D9BB21A46920013445B0062
:10122000BB82FB69DBB2BA8A1146184602F000FDA8
:10123000FB690133FB61FB69032BE4DD054B1B6894
:101240000133044A136000BF2837BD4680BD00BF8C
:1012500090E8FFFF9C02002080B58EB000AF786060
:101260007B681B686D4A934240F0D4807B68DB6BDF
:101270001B685B689BB2C3F14003FB84684B1B880F
:10128000FA8C9A4205D3664B1B88FA8CD31A9BB210
:1012900006E0634B1B88FA8CD31A9BB240339BB297
:1012A000BB84BA8C5F4B1B6813445E4A1360BB8CD3
:1012B000302B0ED95C4B1B6801335B4A1360584AD4
:1012C000FB8C1380594B5B69584A43F4804353614C
:1012D000A1E0BB8CFB86FB8EB3F5807F02D94FF477
:1012E0008073FB86FB8C013B3B633B6B002B02DA7C
:1012F0003B6B40333B634FF6FF73FB8544E03B6B36
:101300007B847B8C4A4AD35CFF2B34D17B8C0133AA
:101310005A4203F03F0302F03F0258BF53423B845E
:101320003B8C434AD35CFD2B25D17B8C10335A4236
:1013300003F03F0302F03F0258BF5342FB83FA8C95
:101340007B8C9A4209D97B8C03F10F02FB8C9A4269
:10135000B4BF01230023DBB206E0FA8BFB8C9A4278
:1013600094BF01230023DBB27B777B7F002B02D06D
:101370007B8CFB850DE03B6B013B3B633B6B002BA8
:1013800002DA3B6B40333B63FB8E5A1EFA86002B1E
:10139000B5D1FB8D4FF6FF72934232D00023BB6272
:1013A00014E0FA8DBB6A13445A4203F03F0302F083
:1013B0003F0258BF53421E4AD15C07F10C02BB6A80
:1013C00013440A461A70BB6A0133BB62BB6A0F2B17
:1013D000E7DD07F10C031846FFF7C8FEFB8D10335D
:1013E0005A4203F03F0302F03F0258BF53429AB201
:1013F0000B4B1A800D4B5B690C4A23F480435361FD
:1014000009E0074AFB8C1380074B1B680133064A2F
:10141000136000E000BF3837BD4680BD00100140BA
:1014200098020020A4020020A00200200008024030
:101430005802002080B582B000AF78607B681B68DE
:10144000124A93421ED17B685B6C03F00803002BA9
:1014500019D00F4B1B6801330D4A13607B681B6862
:101460006FF008021A600B4B00221A8040220A49D2
:10147000786806F089FF094B5B69084A43F48043AA
:10148000536100E000BF0837BD4680BD0010014039
:10149000A00200209802002058020020000802400C
:1014A00080B582B000AF00237B60334B1B6B324AA8
:1014B00043F480031363304B1B6B03F480037B60A6
:1014C0007B6800233B602C4B1B6B2B4A43F40013BF
:1014D0001363294B1B6B03F400133B603B68002232
:1014E0000521102004F0F5FC102004F00EFD002270
:1014F0000521112004F0EDFC112004F006FD00226E
:101500000121392004F0E5FC392004F0FEFC002222
:1015100005213A2004F0DDFC3A2004F0F6FC00221C
:1015200001213B2004F0D5FC3B2004F0EEFC00221E
:1015300001213C2004F0CDFC3C2004F0E6FC00221C
:101540000121442004F0C5FC442004F0DEFC00220C
:101550000121452004F0BDFC452004F0D6FC00220A
:101560000521462004F0B5FC462004F0CEFC00BF67
:101570000837BD4680BD00BF0038024080B483B04C
:1015800000AF0346FB7197F90730002B0BDBFB79AB
:1015900003F01F02074997F907305B09012000FAA1
:1015A00002F241F8232000BF0C37BD465DF8047BF2
:1015B000704700BF00E100E080B483B000AF034695
:1015C0003960FB7197F90730002B0ADB3B68DAB210
:1015D0000C4997F907301201D2B20B4483F800236B
:1015E0000AE03B68DAB20849FB7903F00F03043BD9
:1015F0001201D2B20B441A7600BF0C37BD465DF81B
:10160000047B704700E100E000ED00E080B485B0AD
:1016100000AF0346FB710023FB600023FB7211E067
:10162000FB7A0D4AD35CFA799A4208D1FB7A0B4ACD
:10163000D35C1A4601239340FA681343FB60FB7A9C
:101640000133FB72FB7A092BEAD9FB681846143781
:10165000BD465DF8047B7047C0E70008CCE7000892
:1016600080B584B000AFF860B9607A603B6000205C
:10167000FFF7CCFF0246FB681A600120FFF7C6FFA8
:101680000246BB681A600220FFF7C0FF02467B6873
:101690001A600320FFF7BAFF02463B681A60042075
:1016A000FFF7B4FF0246BB691A6000BF1037BD46A2
:1016B00080BD000090B58BB002AF4FF402720021E4
:1016C000784808F0A3FF4FF402720021764808F032
:1016D0009DFF4FF402720021744808F097FF4FF409
:1016E00002720021724808F091FF4FF4027200214B
:1016F000704808F08BFF07F1080407F10C0207F1AE
:10170000100107F114003B1D00932346FFF7A8FFCB
:101710007B69644A13603B69634A1360FB68634AF0
:101720001360BB68624A13607B68624A13600023DF
:10173000FB8379E0FB8BDB009BB20133BB83BB8B6C
:1017400006337B83BB8B812B36D8BB8B554A52F833
:1017500023107B691A04BB8B0A43524941F82320AA
:10176000BB8B514A52F823103B691A04BB8B0A43C6
:101770004D4941F82320BB8B4C4A52F82310FB689B
:101780001A04BB8B0A43494941F82320BB8B484AC2
:1017900052F82310BB681A04BB8B0A43444941F832
:1017A0002320BB8B434A52F823107B681A04BB8B5F
:1017B0000A43404941F823207B8B812B31D87B8B16
:1017C000384A52F823107A697B8B0A43354941F82D
:1017D00023207B8B344A52F823103A697B8B0A43CF
:1017E000314941F823207B8B304A52F82310FA68A4
:1017F0007B8B0A432D4941F823207B8B2C4A52F8DE
:101800002310BA687B8B0A43294941F823207B8B3C
:10181000284A52F823107A687B8B0A43254941F8FD
:101820002320FB8B0133FB83FB8B0F2B82D9002002
:10183000FFF7ECFE02461B4BD3F804321343194A60
:10184000C2F804320120FFF7E1FE0246164BD3F83E
:1018500004321343144AC2F804320220FFF7D6FEC2
:101860000246124BD3F804321343104AC2F8043232
:101870000320FFF7CBFE02460D4BD3F8043213438F
:101880000B4AC2F804320420FFF7C0FE0246094B9F
:10189000D3F804321343074AC2F8043200BF243796
:1018A000BD4690BDC8030020F8070020280C00208A
:1018B000581000208814002080B588B000AF7860F0
:1018C000FFF7F8FE0023FB77D7E0FB7F9BB2DB003E
:1018D000BB83FB7FC3F10F03FB76BB8B06333B83DC
:1018E000BB8B0433FB820023BB77BFE0BB7F674A1F
:1018F000D35C7B75BB7F664AD35C1A460123934059
:101900003B61BB7F5B007A6813441B881A46FB7EF1
:1019100042FA03F303F00103002B14BF0123002359
:10192000FB73FB7B83F00103DBB2002B00F09B8099
:101930003B8B812B4CD87B7D042B49D801A252F8DC
:1019400023F000BF5919000871190008891900080F
:10195000A1190008B91900083B8B4E4A52F8231010
:101960003B69DA433B8B0A404A4941F823202FE088
:101970003B8B494A52F823103B69DA433B8B0A40C0
:10198000454941F8232023E03B8B444A52F8231079
:101990003B69DA433B8B0A40404941F8232017E07A
:1019A0003B8B3F4A52F823103B69DA433B8B0A409A
:1019B0003B4941F823200BE03B8B3A4A52F8231075
:1019C0003B69DA433B8B0A40364941F8232000BF8C
:1019D000FB8A812B47D87B7D042B44D801A252F887
:1019E00023F000BFF91900080F1A0008251A000893
:1019F0003B1A0008511A0008FB8A264A52F82310A5
:101A0000FB8A3A690A43234941F823202BE0FB8AE9
:101A1000214A52F82310FB8A3A690A431E4941F8C9
:101A2000232020E0FB8A1D4A52F82310FB8A3A69E2
:101A30000A431A4941F8232015E0FB8A184A52F854
:101A40002310FB8A3A690A43154941F823200AE02A
:101A5000FB8A144A52F82310FB8A3A690A43114957
:101A600041F8232000BFBB7F0133BB77BB7F092B2D
:101A70007FF63CAFFB7F0133FB77FB7F0F2B7FF6BD
:101A800024AF00BF00BF2037BD4680BDC0E70008BF
:101A9000CCE70008C8030020F8070020280C00202D
:101AA000581000208814002080B485B000AF034691
:101AB0000A46FB8013467B71B7F906305B001AB209
:101AC0007B791BB213431BB2FB80FB881B099AB2C4
:101AD000FB8853409AB2FB881B0A9BB253409BB2CF
:101AE000DB439BB203F00F03FB81B7F906301B0108
:101AF0001AB2B7F90E3013431BB29BB21846143713
:101B0000BD465DF8047B704790B589B002AF07F120
:101B1000080407F10C0207F1100107F114003B1D46
:101B200000932346FFF79CFD7B69002B02D00F4AF0
:101B30007B6993613B69002B02D00D4A3B6993613D
:101B4000FB68002B02D00B4AFB689361BB68002B3B
:101B500002D0094ABB6893617B68002B02D0074A18
:101B60007B68936100BF1C37BD4690BD00000240FA
:101B70000004024000080240000C02400010024035
:101B800080B500AFFFF7C0FF3A48FFF795FE3A4B2C
:101B900001221A70394B01221A70394B01221A7036
:101BA000384B01221A70384B01221A7000F02CFFBA
:101BB00001F056F801F082F901F0A4FA01F0C2FB3D
:101BC000324B2222DA62314B01225A632F4B01221F
:101BD000DA632E4B01221A642C4B5B692B4A43F0CB
:101BE00021035361294BDB68284A43F4D853D3605F
:101BF000274B2222DA62264B5B69254A43F0010318
:101C00005361234BDB68224A43F48073D360BFF3F4
:101C10004F8F00BFBFF36F8F00BF1C4B1B681B4A69
:101C200043F0010313601A4B1B68194A43F0010388
:101C30001360184B1B68174A43F001031360164BDF
:101C40001B68154A43F001031360144B1B68134AC9
:101C500043F001031360124B1B68114A43F0010368
:101C60001360104B1B680F4A43F00103136000BF61
:101C700080BD00BF740300200C0000200D00002078
:101C80000E0000200F000020100000200000014086
:101C900000040140886402407064024058640240BD
:101CA000A06402402864024080B586B000AF0023E3
:101CB0007B619A4B1B6B994A43F001031363974B6B
:101CC0001B6B03F001037B617B6900233B61934B3A
:101CD0001B6B924A43F002031363904B1B6B03F0A0
:101CE00002033B613B690023FB608C4B1B6B8B4AFF
:101CF00043F004031363894B1B6B03F00403FB6085
:101D0000FB680023BB60854B1B6B844A43F00803D0
:101D10001363824B1B6B03F00803BB60BB6800239B
:101D20007B607E4B1B6B7D4A43F0100313637B4B40
:101D30001B6B03F010037B607B68784B5B6C774A0E
:101D400043F003035364754B1B6B744A43F48003E5
:101D50001363734B84221A60714B00229A62704B9A
:101D60002222DA626E4B23225A636D4B0122DA6320
:101D70006B4B01221A646A4B20225A60684BDB6865
:101D8000674A43F4D853D360654BDB69644A23F454
:101D9000E043D361624BDB69614A43F4C043D361E2
:101DA0005F4B1B6A5E4A43F4805313625C4B5B6C6F
:101DB0005B4A43F400435364594B5B69584A43F010
:101DC00001035361564B1B69554A23F0010313610C
:101DD000544B84221A60534B00229A62514B2222A8
:101DE000DA62504B5B6C4F4A43F4004353644D4BF3
:101DF0005B694C4A43F0010353614A4B1B69494AF2
:101E000023F001031361484B1B68474A23F0010389
:101E1000136000BF444B1B6803F00103002BF9D192
:101E2000424B4FF47462DA603F4B414A1A604420DF
:101E3000FFF7A4FB03214420FFF7BEFB3D4B1B68CB
:101E40003C4A23F00103136000BF3A4B1B6803F0C8
:101E50000103002BF9D1354B3D22DA60354B344A72
:101E60001A603C20FFF78AFB03213C20FFF7A4FB0C
:101E7000314B1B68304A23F00103136000BF2E4B27
:101E80001B6803F00103002BF9D1284B4FF074625B
:101E90009A60294B264A1A603B20FFF76FFB03210B
:101EA0003B20FFF789FB254B1B68244A23F00103E5
:101EB000136000BF214B1B6803F00103002BF9D115
:101EC0001A4B4FF47412DA601C4B194A1A60452001
:101ED000FFF754FB03214520FFF76EFB184B1B68EF
:101EE000174A23F00103136000BF154B1B6803F072
:101EF0000103002BF9D10D4B4FF474629A60104B23
:101F0000104A1A603920FFF739FB03213920FFF707
:101F100053FB00BF1837BD4680BD00BF00380240EC
:101F20000000014000040140886402400064024057
:101F30005054030C7064024058640240A064024094
:101F4000286402405054030E80B489B000AF78601A
:101F50000B46FB707B6803F590733B612EE17B6859
:101F60001A1D7A601B68FA78012101FA02F2134007
:101F7000002B0CBF01230023DBB2002B30D17B6888
:101F80001A1D7A601B68FA78012101FA02F21340E7
:101F9000002B0CBF01230023DBB2002B20D17B6878
:101FA0001A1D7A601B68FA78012101FA02F21340C7
:101FB000002B0CBF01230023DBB2002B10D17B6868
:101FC0001A1D7A601B68FA78012101FA02F21340A7
:101FD000002B0CBF01230023DBB2002B00F0EE80AE
:101FE0007B68043BFB617B68FC333B610023BB6186
:101FF0000023FB75C3E07B681A1D7A601B68FA78C2
:10200000012101FA02F21340002B21D17B681A1D35
:102010007A601B68FA78012101FA02F21340002B62
:1020200016D17B681A1D7A601B68FA78012101FAC3
:1020300002F21340002B0BD17B681A1D7A601B68DB
:10204000FA78012101FA02F21340002B00F0978088
:102050007A683B699A4200F292807A68FB69D31AE7
:10206000142B0ADD7A68FB69D31A9B105A4A82FB4B
:102070000312DB17D31ADBB200E00123FB73FA7DF6
:10208000FB7B1344FB75FB7BBA6902FA03F3BB616C
:102090007B68043BFB616CE07B681A1D7A601B68FF
:1020A000FA78012101FA02F21340002B0CBF012340
:1020B0000023DBB2002B2FD17B681A1D7A601B68CE
:1020C000FA78012101FA02F21340002B0CBF012320
:1020D0000023DBB2002B1FD17B681A1D7A601B68BE
:1020E000FA78012101FA02F21340002B0CBF012300
:1020F0000023DBB2002B0FD17B681A1D7A601B68AE
:10210000FA78012101FA02F21340002B0CBF0123DF
:102110000023DBB2002B2CD07A683B699A422DD881
:102120007A68FB69D31A142B0ADD7A68FB69D31A23
:102130009B10294A82FB0312DB17D31ADBB200E0A3
:102140000123FB73FA7DFB7B1344FB75FB7BBA69B0
:1021500002FA03F3BB61FB7BC3F115031F4A42FA8A
:1021600003F31A46BB691343BB617B68043BFB6105
:1021700004E07A683B699A428ED300E000BF7A6837
:102180003B699A427FF637AFFB7DC3F11503BA690D
:1021900002FA03F3BB61FB691B68FA78012101FABB
:1021A00002F21340002B07D0FB7D0C4A42FA03F3E6
:1021B0001A46BB691343BB61BB6906E07A683B6999
:1021C0009A42FFF4CCAE4FF0FF3318462437BD4699
:1021D0005DF8047B704700BF56555555FFFF1F0043
:1021E00080B485B000AF78607B68DBB203F00F038A
:1021F000FB737B681B09BB81BB891B099BB2DAB2ED
:10220000BB89DBB25340DAB2BB891B0A9BB2DBB29B
:102210005340DBB2DB43DBB203F00F03FB72FA7B0C
:10222000FB7A9A420CBF01230023DBB21846143715
:10223000BD465DF8047B704780B588B000AF78601C
:102240000B46FB707B686FF07042934280F0948085
:102250007B685B087A6853407B607B6803F01F03F0
:10226000FB617B685B0903F01F03BB617B689B0A12
:1022700003F01F037B617B68DB0B03F01F033B61F3
:10228000414AFB6952F82330B3F1FF3F14D03E4A74
:10229000BB6952F82330B3F1FF3F0DD03A4A7B6956
:1022A00052F82330B3F1FF3F06D0374A3B6952F86A
:1022B0002330B3F1FF3F0BD1FB78344A002102F801
:1022C0002310FB78314A9B00134400225A7058E0D7
:1022D0002D4AFB6952F82330FB602B4ABB6952F848
:1022E00023301B01FA681343FB60274A7B6952F8CD
:1022F00023301B02FA681343FB60234A3B6952F800
:1023000023301B03FA681343FB60F868FFF768FF8C
:102310000346002B2AD0FB781C4A012102F8231027
:10232000FB681B09C3F30802FB685B0B9A40FB7850
:1023300091B2164A9B0013440A465A80FB78134A0E
:102340009B0013445B881A46114B93FBF2F3114A2E
:1023500082FB03121A449210DB17D21AFB7891B257
:102360000A4A9B0013440A465A800AE0FB78074A4F
:10237000002102F8231004E0FB78044A002102F84F
:1023800023102037BD4680BDD8E700088C0300200D
:10239000008793039324499280B500AF00F098FB27
:1023A00000F0C4FC00F0E6FD00F008FF01F038F892
:1023B000024B00221A7000BF80BD00BF88030020BE
:1023C00080B483B000AF00237B602CE01B497A68A7
:1023D00013469B0013449B000B444FF000021A600D
:1023E00016497A6813469B0013449B000B44043340
:1023F0004FF000021A6011497A6813469B0013449B
:102400009B000B4408334FF000021A600B497A68B6
:1024100013469B0013449B000B440C3300221A808C
:102420007B6801337B607B68092BCFDD00BF00BF79
:102430000C37BD465DF8047B704700BFAC0200203E
:1024400080B495B000AF0346B96087ED010AC7EDCF
:10245000000AFB73FB7B092B06D8D7ED007AF5EE5B
:10246000C07AF1EE10FA01D8002333E2BB6807EE20
:10247000903AF8EE677AC7ED137A7B68BB64002365
:1024800087F84730D7ED127AF5EEC07AF1EE10FA00
:1024900009D5022387F84730D7ED127AF1EE677A33
:1024A000C7ED127A09E0D7ED127AF5EEC07AF1EEB7
:1024B00010FA02DD012387F84730D7ED127AF0EEEB
:1024C000E77AF5EEC07AF1EE10FA28DDBB68002B52
:1024D00018D1FA7BC74913469B0013449B000B4459
:1024E0001033D3ED007AF5EEC07AF1EE10FA09DD83
:1024F000FA7BC04913469B0013449B000B441033E6
:102500001B68FB64BB68002B09D0FA7BB9491346F2
:102510009B0013449B000B441033FA6C1A6097ED38
:10252000127AD7ED137A77EE677AC7ED0F7AB24B4E
:10253000D3ED007A97ED0F7A67EE277AC7ED0E7A22
:10254000D7ED127AF0EEE77AF5EEC07AF1EE10FAF6
:1025500062DDD7ED0F7AB0EEE77AD7ED127AF0EEC2
:10256000E77ADFEDA66A67EEA67AB4EEE77AF1EED7
:1025700010FA51D5FA7B9F4913469B0013449B00E8
:102580000B4493ED007A9E4BD3ED006AD7ED0F7AA2
:1025900066EEA76AD7ED007A66EEA77AFA7B77EE49
:1025A000277A944913469B0013449B000B44C3EDC8
:1025B000007AFA7B8F4913469B0013449B000B441F
:1025C000D3ED007A9FED8F7AF4EEC77AF1EE10FA30
:1025D00008DDFA7B874913469B0013449B000B449C
:1025E000894A1A60FA7B834913469B0013449B0077
:1025F0000B44D3ED007A9FED857AF4EEC77AF1EEC5
:1026000010FA1FD5FA7B7B4913469B0013449B00AD
:102610000B447F4A1A6015E0FA7B764913469B000B
:1026200013449B000B44D3ED007AFA7B9FED797A3B
:1026300067EE877A6F4913469B0013449B000B4457
:10264000C3ED007AFA7B6B4913469B0013449B0051
:102650000B440433D3ED007A97ED0F7A77EE677A67
:10266000C7ED0D7AFA7B634913469B0013449B0028
:102670000B440433FA6B1A60D7ED0D7A9FED667A3E
:1026800027EE877AFA7B5B4913469B0013449B0035
:102690000B440833D3ED007ADFED606A67EEA67A6B
:1026A000FA7B77EE277A534913469B0013449B002D
:1026B0000B440833C3ED007AFA7B4E4913469B0066
:1026C00013449B000B44083393ED007A544BD3ED35
:1026D000007A67EE277AC7ED0C7AFA7B45491346F4
:1026E0009B0013449B000B4493ED007AD7ED0E7AC8
:1026F00077EE277A97ED0C7A77EE277AC7ED0B7A8B
:10270000D7ED127AF0EEE77A9FED467A67EE877A98
:10271000C7ED0A7AD7ED0B7A9FED427A67EE877A9A
:10272000C7ED097A97ED0A7AD7ED097A77EE277A1D
:10273000C7ED087A3C4BFB613C4BBB613C4B7B617A
:102740004FF000033B6497F84730012B08D197ED19
:10275000077AD7ED087A77EE277AC7ED107A39E055
:1027600097F84730022B08D197ED067AD7ED087A13
:1027700077EE277AC7ED107A2CE0FA7B1D491346D5
:102780009B0013449B000B444FF000021A60FA7B3D
:10279000184913469B0013449B000B4404334FF02D
:1027A00000021A60FA7B134913469B0013449B00F6
:1027B0000B4408334FF000021A60FA7B0D491346B0
:1027C0009B0013449B000B4410334FF000021A602F
:1027D00000237FE097F84730012B2BD197ED107A3B
:1027E000D7ED077AB4EEE77AF1EE10FA31D5FB694E
:1027F0003B642EE0AC020020000000209A99993F33
:10280000040000200000FA430000FA430000FAC36D
:102810000000FAC33333733FCDCCCC3E9A99193FB5
:10282000080000209A99193E0000834400004042AD
:1028300000E0FF4497F84730022B0AD197ED107A59
:10284000D7ED067AB4EEE77AF1EE10FA01D5BB695E
:102850003B6497ED107AD7ED057AB4EEE77AF1EEA6
:1028600010FA01DD7B693B64D7ED107AB6EE007A91
:1028700077EE877AFCEEE77A17EE903A7B82FA7B66
:10288000174913469B0013449B000B440C337A8A70
:102890001A80FB7B012B1CD1124B1B8801339AB28F
:1028A000104B1A800F4B1B88B3F5967F11D30E4A3D
:1028B000FB7B13700C4AFB6B53600B4ABB6C936041
:1028C000094A7B8A9381084B01229A73054B0022A7
:1028D0001A807B8A18465437BD465DF8047B7047E2
:1028E000AC020020C4030020B403002080B487B0F1
:1028F00000AF4FF47053FB604FF47053BB604FF464
:10290000A0537B60394B1A68FB68DB43374913409F
:102910000B60364BDA68BB68DB4334491340CB604D
:10292000324BDA6831497B681343CB6046237B61C5
:102930007B69002B01D101237B612D4B1B682C4A45
:1029400023F0010313602A4A7B69013BD362284AC2
:102950007B695B085363264B5B69254A43F001039F
:102960005361244B1B68234A23F00103136000E0EA
:1029700000BF204B1B6803F00103002BF8D11E4B56
:102980004FF47462DA601B4B1C4A9A60194B1C4A64
:10299000DA608A233B613B69B3F5803F02D34FF68F
:1029A000FF733B61134A3B695360164B3B60114A0E
:1029B0003B681360BFF34F8F00BFBFF36F8F00BF43
:1029C0000C4B1B680B4A43F001031360084B0022B9
:1029D0005A62074B1B68064A43F00103136000BFAD
:1029E0001C37BD465DF8047B704700BF0000024005
:1029F0000000014088640240006402401000024070
:102A0000D00500201054030C80B483B000AF294BD4
:102A10001B68284A43F4A0531360264B1B68254AC1
:102A200023F420531360234B5B68224A23F0600396
:102A30005360204BDB681F4A43F4A053D3601D4B07
:102A4000DB681C4A23F42053D3601A4B9B68194A55
:102A500043F470539360184B1B68174A23F001032B
:102A60001360164B1B68154A23F00103136000E046
:102A700000BF124B1B6803F00103002BF8D1104B71
:102A80004FF47462DA600D4B0E4A9A600B4B0E4A9B
:102A9000DA600A4B82225A600C4B7B60074A7B68E3
:102AA00043F04003136000BF0C37BD465DF8047B64
:102AB000704700BF000002400000014088640240EF
:102AC0000064024018000240C80300201054030CA8
:102AD00080B584B000AF0023FB6025E0164AFB6898
:102AE00013441B78002B1CD1144AFB6813441B7839
:102AF000052B05D0114AFB6813441B78062B10D117
:102B00000E4AFB6813441B78FB72FB7A19460C488B
:102B1000FFF71AFA7860FB68DBB219467868FFF7AE
:102B20008BFBFB680133FB60FB68092BD6DD00BF24
:102B300000BF1037BD4680BDC0E70008CCE70008E5
:102B4000D005002080B487B000AF3C4BFB603B4B0E
:102B5000BB603B4B7B603B4B1A68FB68DB433949EE
:102B600013400B60374BDA68BB68DB4335491340D1
:102B7000CB60344BDA6833497B681343CB60462320
:102B80007B617B69002B01D101237B612E4B1B688C
:102B90002D4A23F0010313602B4A7B69013BD3626A
:102BA000294A7B695B081364274B5B69264A43F01B
:102BB00001035361254B1B68244A23F00103136072
:102BC00000E000BF214B1B6803F00103002BF8D18C
:102BD0001F4B3D22DA601D4B1E4A9A601B4B1E4A5A
:102BE000DA608A233B613B69B3F5803F02D34FF63D
:102BF000FF733B61154A3B695360184B3B60134AB6
:102C00003B681360BFF34F8F00BFBFF36F8F00BFF0
:102C10000E4B1B680D4A43F0010313600A4B002260
:102C20005A62094B1B68084A43F00103136000BF56
:102C30001C37BD465DF8047B704700BF03003000C1
:102C400001001000000402400000014070640240D6
:102C50000064024010040240000A00201054030CDB
:102C600080B483B000AF2B4B1B682A4A43F4801317
:102C700043F001031360274B1B68264A23F400131B
:102C800023F002031360234B5B68224A23F4806322
:102C900023F0010353601F4BDB681E4A43F480138B
:102CA00043F00103D3601B4BDB681A4A23F4001383
:102CB00023F00203D360174B9B68164A43F440137A
:102CC00043F003039360144B1B68134A23F0010382
:102CD000136000E000BF104B1B6803F00103002BE2
:102CE000F8D10E4B3D22DA600B4B0D4A9A600A4B2D
:102CF0000C4ADA60084B82225A600B4B7B60064A12
:102D00007B6843F04003136000BF0C37BD465DF89D
:102D1000047B70470004024070640240006402407B
:102D200018040240F80700201054030C80B584B04A
:102D300000AF0023FB6025E0164AFB6813441B78B4
:102D4000012B1CD1144AFB6813441B78002B05D0BF
:102D5000114AFB6813441B780A2B10D10E4AFB68FA
:102D600013441B78FB72FB7A19460C48FFF7ECF80A
:102D70007860FB68DBB219467868FFF75DFAFB689C
:102D80000133FB60FB68092BD6DD00BF00BF1037A5
:102D9000BD4680BDC0E70008CCE70008000A00205F
:102DA00080B487B000AF4FF44C33FB604FF44C332A
:102DB000BB604FF488337B60394B1A68FB68DB4398
:102DC000374913400B60364BDA68BB68DB43344944
:102DD0001340CB60324BDA6831497B681343CB60D8
:102DE00046237B617B69002B01D101237B612D4B45
:102DF0001B682C4A23F0010313602A4A7B69013BBC
:102E0000D362284A7B695B085363264B5B69254A7A
:102E100043F001035361244B1B68234A23F0010351
:102E2000136000E000BF204B1B6803F00103002B80
:102E3000F8D11E4B4FF074629A601B4B1C4A9A608B
:102E4000194B1C4ADA608A233B613B69B3F5803F2A
:102E500002D34FF6FF733B61134A3B695360164B35
:102E60003B60114A3B681360BFF34F8F00BFBFF355
:102E70006F8F00BF0C4B1B680B4A43F001031360BC
:102E8000084B00225A62074B1B68064A43F00103B5
:102E9000136000BF1C37BD465DF8047B704700BF60
:102EA00000080240000001405864024000640240F3
:102EB00010080240300E00201054030C80B483B080
:102EC00000AF264B1B68254A43F488331360234B1D
:102ED0001B68224A23F408331360204B5B681F4AA7
:102EE00023F4A07353601D4BDB681C4A43F4883302
:102EF000D3601A4BDB68194A23F40833D360174BAD
:102F00009B68164A43F44C339360154B1B68144A74
:102F100023F00103136000E000BF114B1B6803F0B6
:102F20000103002BF8D10F4B4FF074629A600C4BE9
:102F30000D4A9A600A4B0D4ADA60094B82225A60A8
:102F40000B4B7B60064A7B6843F04003136000BF75
:102F50000C37BD465DF8047B704700BF0008024097
:102F6000586402400064024018080240280C002007
:102F70001054030C80B584B000AF0023FB6025E043
:102F8000164AFB6813441B78022B1CD1144AFB68B9
:102F900013441B78062B05D0114AFB6813441B7899
:102FA000082B10D10E4AFB6813441B78FB72FB7A86
:102FB00019460C48FEF7C8FF7860FB68DBB219467B
:102FC0007868FFF739F9FB680133FB60FB68092B70
:102FD000D6DD00BF00BF1037BD4680BDC0E700088A
:102FE000CCE70008300E002080B487B000AF4FF06F
:102FF0004C53FB604FF04C53BB604FF088537B60E9
:10300000394B1A68FB68DB43374913400B60364B7A
:10301000DA68BB68DB4334491340CB60324BDA6873
:1030200031497B681343CB6046237B617B69002B6E
:1030300001D101237B612D4B1B682C4A23F0010336
:1030400013602A4A7B69013BD362284A7B695B088B
:10305000D363264B5B69254A43F001035361244B3C
:103060001B68234A23F00103136000E000BF204BDC
:103070001B6803F00103002BF8D11E4B4FF47412B0
:10308000DA601B4B1C4A9A60194B1C4ADA608A238F
:103090003B613B69B3F5803F02D34FF6FF733B6161
:1030A000134A3B695360164B3B60114A3B681360FF
:1030B000BFF34F8F00BFBFF36F8F00BF0C4B1B6878
:1030C0000B4A43F001031360084B00225A62074B7E
:1030D0001B68064A43F00103136000BF1C37BD465E
:1030E0005DF8047B704700BF000C02400000014007
:1030F000A064024000640240100C024060120020F4
:103100001054030C80B483B000AF264B1B68254AD3
:1031100043F088531360234B1B68224A23F0085363
:103120001360204B5B681F4A23F4A04353601D4B80
:10313000DB681C4A43F08853D3601A4BDB68194A9A
:1031400023F00853D360174B9B68164A43F04C5347
:103150009360154B1B68144A23F00103136000E0D1
:1031600000BF114B1B6803F00103002BF8D10F4B7C
:103170004FF47412DA600C4B0D4A9A600A4B0D4AF8
:10318000DA60094B82225A600B4B7B60064A7B68EF
:1031900043F04003136000BF0C37BD465DF8047B6D
:1031A000704700BF000C0240A0640240006402406F
:1031B000180C0240581000201054030C80B584B045
:1031C00000AF0023FB6025E0164AFB6813441B7820
:1031D000032B1CD1144AFB6813441B780C2B05D01D
:1031E000114AFB6813441B780E2B10D10E4AFB6862
:1031F00013441B78FB72FB7A19460C48FEF7A4FEB9
:103200007860FB68DBB219467868FFF715F8FB6851
:103210000133FB60FB68092BD6DD00BF00BF103710
:10322000BD4680BDC0E70008CCE700086012002062
:1032300080B487B000AF3A4BFB60394BBB60394B71
:103240007B60394B1A68FB68DB43374913400B60DE
:10325000354BDA68BB68DB4333491340CB60324BF4
:10326000DA6831497B681343CB6046237B617B6915
:10327000002B01D101237B612C4B1B682B4A23F0CF
:1032800001031360294A7B69013BD362274B5B69C9
:10329000264A43F001035361254B1B68244A23F05F
:1032A0000103136000E000BF214B1B6803F0010322
:1032B000002BF8D11F4B4FF474629A601C4B1E4ACE
:1032C0009A601B4B1D4ADA608A233B613B69B3F568
:1032D000803F02D34FF6FF733B61154A3B69536051
:1032E000174B3B60124A3B681360BFF34F8F00BF20
:1032F000BFF36F8F00BF0E4B1B680D4A43F00103F5
:1033000013600A4B00225A62084B1B68074A43F0BD
:103310000103136000BF1C37BD465DF8047B704796
:1033200000000C0C000004040010024000040140E6
:1033300028640240006402401010024090160020F1
:103340001054030E80B483B000AF2E4B1B682D4A7F
:1033500043F0806343F4802313602A4B1B68294A9F
:1033600023F0006323F400231360264B5B68254A97
:1033700023F408535360234BDB68224A43F08063F5
:1033800043F48023D3601F4BDB681E4A23F00063A5
:1033900023F40023D3601B4B9B681A4A43F040631D
:1033A00043F440239360184B1B68174A23F0010332
:1033B0001360164B1B68154A23F00103136000E0ED
:1033C00000BF124B1B6803F00103002BF8D1104B18
:1033D0004FF474629A600D4B0E4A9A600B4B0E4A82
:1033E000DA600A4B82225A600C4B7B60074A7B688A
:1033F00043F04003136000BF0C37BD465DF8047B0B
:10340000704700BF001002400004014028640240E1
:103410000064024018100240881400201054030E6B
:1034200080B584B000AF0023FB6025E0164AFB683E
:1034300013441B78042B1CD1144AFB6813441B78DB
:10344000092B05D0114AFB6813441B780D2B10D1B2
:103450000E4AFB6813441B78FB72FB7A19460C4832
:10346000FEF772FD7860FB68DBB219467868FEF7FC
:10347000E3FEFB680133FB60FB68092BD6DD00BF70
:1034800000BF1037BD4680BDC0E70008CCE700088C
:103490009016002080B500AF3F4B5B6803F40063DB
:1034A000002B47D03C4BDB683B4A43F40063D360BE
:1034B0003A4B1B78002B05D0FFF718FA374B002248
:1034C0001A7037E0364B1B68354A23F0010313604E
:1034D00000E000BF324B1B6803F00103002BF8D162
:1034E0002D4BDB682C4A43F47463D3602D4B1B785F
:1034F000DBB243F00103DAB22A4B1A7072B600BF96
:10350000294B1B78DBB20133DAB2274B1A70264BFA
:103510001B78DBB2042B08D1244B1B68234A23F011
:1035200001031360204B00221A7062B600BF1B4BD0
:1035300001221A70184B5B6803F48063002B05D0DE
:10354000154BDB68144A43F48063D360124B5B680D
:1035500003F40073002B05D00F4BDB680E4A43F4D5
:103560000073D3600C4B5B6803F48073002B05D0B1
:10357000094BDB68084A43F48073D360064B5B68F1
:1035800003F04003002B05D0034BDB68024A43F0F5
:103590004003D36000BF80BD006402400C000020E7
:1035A0008864024088030020B81800200000014011
:1035B00080B582B000AF464B5B6803F02003002B60
:1035C00051D0434BDB68424A43F02003D360414B68
:1035D0001B78002B0FD0FFF7B5FA00237B6003E0C8
:1035E00000BF7B6801337B607B68632BF8DD394B60
:1035F00000221A7037E0384B1B68374A23F001036A
:10360000136000E000BF344B1B6803F00103002B84
:10361000F8D12F4BDB682E4A43F03D03D3602F4B8C
:103620001B78DBB243F00203DAB22C4B1A7072B68D
:1036300000BF2B4B1B78DBB20133DAB2284B1A7078
:10364000274B1B78DBB2042B08D1264B1B68254A7D
:1036500023F001031360224B00221A7062B600BFF0
:103660001C4B01221A701A4B5B6803F01003002BED
:1036700005D0174BDB68164A43F01003D360144B98
:103680005B6803F00803002B05D0114BDB68104A80
:1036900043F00803D3600E4B5B6803F00403002B78
:1036A00005D00B4BDB680A4A43F00403D360084B98
:1036B0005B6803F00103002B05D0054BDB68044A6F
:1036C00043F00103D36000BF0837BD4680BD00BF93
:1036D000006402400D000020706402408803002056
:1036E000B81800200000014080B500AF3F4B1B68B8
:1036F00003F00063002B47D03C4B9B683B4A43F0F0
:10370000006393603A4B1B78002B05D0FFF748FB12
:10371000374B00221A7037E0364B1B68354A23F0CE
:103720000103136000E000BF324B1B6803F001038C
:10373000002BF8D12D4B9B682C4A43F074639360A7
:103740002D4B1B78DBB243F00403DAB22A4B1A701C
:1037500072B600BF294B1B78DBB20133DAB2274BBC
:103760001A70264B1B78DBB2042B08D1244B1B6844
:10377000234A23F001031360204B00221A7062B623
:1037800000BF1B4B01221A70184B1B6803F08063AB
:10379000002B05D0154B9B68144A43F0806393605F
:1037A000124B1B6803F00073002B05D00F4B9B6876
:1037B0000E4A43F0007393600C4B1B6803F0807358
:1037C000002B05D0094B9B68084A43F08073936037
:1037D000064B1B6803F48003002B05D0034B9B684A
:1037E000024A43F48003936000BF80BD006402403E
:1037F0000E0000205864024088030020B818002002
:103800000000014080B500AF3F4B5B6803F400133C
:10381000002B47D03C4BDB683B4A43F40013D3609A
:103820003A4B1B78002B05D0FFF7DEFB374B00220D
:103830001A7037E0364B1B68354A23F001031360DA
:1038400000E000BF324B1B6803F00103002BF8D1EE
:103850002D4BDB682C4A43F47413D3602D4B1B783B
:10386000DBB243F00803DAB22A4B1A7072B600BF1B
:10387000294B1B78DBB20133DAB2274B1A70264B87
:103880001B78DBB2042B08D1244B1B68234A23F09E
:1038900001031360204B00221A7062B600BF1B4B5D
:1038A00001221A70184B5B6803F48013002B05D0BB
:1038B000154BDB68144A43F48013D360124B5B68EA
:1038C00003F40023002B05D00F4BDB680E4A43F4B2
:1038D0000023D3600C4B5B6803F48023002B05D0DE
:1038E000094BDB68084A43F48023D360064B5B68CE
:1038F00003F48033002B05D0034BDB68024A43F40A
:103900008033D36000BF80BD006402400F00002000
:10391000A064024088030020B81800200000014085
:1039200080B500AF364B1B6803F40063002B34D026
:10393000334B9B68324A43F400639360314B1B78EE
:10394000002B05D0FFF774FC2E4B00221A7024E0E8
:103950002D4B1B682C4A23F0010313602B4B1B6873
:103960002A4A23F00103136000E000BF274B1B68C5
:1039700003F00103002BF8D1214B9B68204A43F44C
:1039800074639360224B1B78DBB243F01003DAB20E
:103990001F4B1A701B4B01221A70194B1B6803F442
:1039A0008063002B05D0164B9B68154A43F4806357
:1039B0009360134B1B6803F40073002B05D0104B6E
:1039C0009B680F4A43F4007393600D4B1B6803F42C
:1039D0008073002B05D00A4B9B68094A43F480731F
:1039E0009360074B1B6803F04003002B05D0044B8A
:1039F0009B68034A43F04003936000BF80BD00BF53
:103A000000640240100000200004014028640240CD
:103A10008803002080B58CB000AF07F11C030022A2
:103A20001A605A609A60DA601A610023BB616C4BBD
:103A30001B6B6B4A43F010031363694B1B6B03F062
:103A40001003BB61BB6900237B61654B1B6B644A40
:103A500043F004031363624B1B6B03F004037B61AD
:103A60007B6900233B615E4B1B6B5D4A43F0800327
:103A700013635B4B1B6B03F080033B613B690023CB
:103A8000FB60574B1B6B564A43F001031363544BC7
:103A90001B6B03F00103FB60FB680023BB60504B12
:103AA0001B6B4F4A43F0020313634D4B1B6B03F038
:103AB0000203BB60BB6800237B60494B1B6B484A19
:103AC00043F008031363464B1B6B03F008037B6052
:103AD0007B68002246F24011424802F0CFFF0022EC
:103AE0006021414802F0CAFF002240F201413F48F4
:103AF00002F0C4FF00224FF408513D4802F0BEFF1F
:103B000000224FF4A0413B4802F0B8FF4FF4C043FD
:103B1000FB6101233B6200237B620023BB6207F150
:103B20001C0319462F4802F00DFE0823FB610023F9
:103B30003B6201237B6207F11C0319462A4802F00D
:103B400001FE6023FB6101233B6200237B620323B0
:103B5000BB6207F11C031946234802F0F3FD40F253
:103B60000143FB6101233B6200237B620323BB62B1
:103B700007F11C0319461D4802F0E4FD4FF40853F9
:103B8000FB6101233B6200237B620323BB6207F1DD
:103B90001C031946164802F0D5FD4FF4A043FB6103
:103BA00001233B6200237B620323BB6207F11C03FA
:103BB0001946104802F0C6FD4FF4A073FB610123C3
:103BC0003B6200237B620323BB6207F11C0319469F
:103BD000044802F0B7FD00BF3037BD4680BD00BFCE
:103BE0000038024000080240000002400004024089
:103BF00000100240000C024080B483B000AF0346C6
:103C00003960FB71FB79092B0AD8FB793A6807EE1A
:103C1000902AF8EEE77A054A9B001344C3ED007A38
:103C200000BF0C37BD465DF8047B7047BC18002010
:103C300080B483B000AF03460A46FB711346BB80D5
:103C4000FB79032B04D8FB790449BA8821F81320A7
:103C500000BF0C37BD465DF8047B7047180000209C
:103C600080B582B000AF78600B467B807B681B68B4
:103C7000044A934202D17868FDF7EEFA00BF083794
:103C8000BD4680BD001001402DE9F04186B004AF73
:103C90002F4801F0BBFC0A212D4801F089FD2C487A
:103CA00001F011FE0346FB80294801F0AFFC0A2118
:103CB000274801F07DFD264801F005FE0346BB8044
:103CC000FB8807EE903AF8EEE77A9FED227A27EE2E
:103CD000877ADFED216AC7EE267AB2EE067A67EEC2
:103CE000877A1E4BC3ED007ABB8807EE903AF8EE58
:103CF000E77A9FED187A27EE877ADFED176AC7EE2D
:103D0000267AB2EE067A67EE877A154BC3ED007A13
:103D1000B7F80680114B1B681846FCF725FC0446D3
:103D20000D46BE880E4B1B681846FCF71DFC02466C
:103D30000B46CDE90223009622462B464146094810
:103D400000F0EEFF00BF0837BD46BDE8F08100BFC0
:103D5000100200203333534000F07F45E818002064
:103D6000EC18002098E6000880B594B000AF01F090
:103D700073FB994BDB68984A43F08073D360974B91
:103D80001B68964A43F00103136000F09FF9FFF7A8
:103D900041FEFDF785FB00F00DFC00F0B3FC00F0E8
:103DA00001FD00F06DFD01F07BF901F0A3F9FDF7D5
:103DB00047F98B4800F09CFF00F01AFAFDF774FFFA
:103DC000FDF778FCFEF7FCFA0023FB6409E0854B65
:103DD0001A688549FB6C9B000B441A60FB6C01332D
:103DE000FB64FB6C092BF2DD0023BB640CE00021BB
:103DF0000020FDF759FE034619467C4ABB6C22F8A9
:103E00001310BB6C0133BB64BB6C092BEFDD01F0FD
:103E100089FB38620AE0FDF7B3FE00237B6002E015
:103E20007B6801337B607B68632BF9DD01F07AFBF3
:103E300002463B6AD31AB3F5FA6FECD300237B64D6
:103E40000CE000210A20FDF72FFE03461946674AC1
:103E50007B6C22F813107B6C01337B647B6C092B29
:103E6000EFDD00233B6404E0FDF78AFE3B6C013389
:103E70003B643B6C052BF7DD0023FB630CE000216A
:103E80000C20FDF711FE03461946584AFB6B22F839
:103E90001310FB6B0133FB63FB6B092BEFDD00237E
:103EA000BB6304E0FDF76CFEBB6B0133BB63BB6B14
:103EB000052BF7DD282001F041FB4D4800F030FFD5
:103EC00000237B6300233B6301F02CFBF86100239C
:103ED000BB6101F027FB78610023FB850023BB85D4
:103EE000444B1B68434A43F080631360414B1B689B
:103EF000404A43F0805313603F4B1B6903F00803B3
:103F0000002B14BF01230023DBB21A463B4B1A706F
:103F100001F008FB78617A69BB69D31AB3F57A7F3F
:103F200001D3FFF7B1FE364B1B78DBB2002B01D07B
:103F300000F030FF334B1B78DBB2002B68D0FEF76C
:103F40002BFA0023BB6232E000237B62264ABB6A65
:103F50009B0013441B683B612B4ABB6A12F8233059
:103F6000002B06D0284ABB6A9B0013445B887B6207
:103F700001E000237B62254BFB60BB6ADBB2D7ED1F
:103F8000030A97ED040A796A1846FEF759FA0346C0
:103F90007B817B8901211846FDF786FD0346194682
:103FA000124ABB6A22F81310BB6A0133BB62BB6AB8
:103FB000092BC9DDFDF7E4FD0E4B5B690D4A43F4A7
:103FC000005353610B4B5B690A4A23F480435361EE
:103FD0000023BB852FE000BFF0ED00E0001000E003
:103FE000441D002014000020BC1800207403002091
:103FF000BCE600080008024000000240E41800206F
:10400000761C0020880300208C0300200AD7A33BE5
:10401000BB8DB3F57A7F0BD9284B5B69274A23F414
:1040200000535361254B5B69244A43F48043536139
:10403000BB8D0133BB8501F075FAF861FA697B6BC2
:10404000D31A132B22D9FB8D002B0FD14FF47A7288
:1040500000211B4800F0E4F84FF47A72042118485C
:1040600000F0DEF8FB8D0133FB850DE0154B1B885E
:104070001A460021124800F0D3F8124B5B881A460A
:1040800004210F4800F0CCF8FB697B63FA693B6BB5
:10409000D31A092B7FF630AF0A4B9B881A460021B2
:1040A000094800F0BDF8074BDB881A460421064892
:1040B00000F0B6F8FB693B631EE700BF0008024052
:1040C0008419002018000020CC19002080B594B07D
:1040D00000AF07F1200330220021184606F096FABF
:1040E00007F10C0300221A605A609A60DA601A61C4
:1040F0000023BB60284B1B6C274A43F0805313649A
:10410000254B1B6C03F08053BB60BB6800237B60B6
:10411000224B1B68214A43F4804313601F4B1B68EA
:1041200003F480437B607B6801233B624FF4803360
:104130007B620223BB634FF48003FB6304233B6475
:10414000A8237B640223BB640423FB6407F12003E0
:10415000184602F0ADFC0346002B01D000F042F8F7
:104160000F23FB6002233B6100237B614FF4A053CC
:10417000BB614FF48053FB6107F10C030521184626
:1041800002F00EFF0346002B01D000F02BF800BF19
:104190005037BD4680BD00BF00380240007000406F
:1041A00080B483B000AF78607B681B68094A934293
:1041B00002D1094B00221A707B681B68074A9342A0
:1041C00002D1074B00221A7000BF0C37BD465DF8C4
:1041D000047B704700100140A8020020004400400A
:1041E000771C002080B400AF72B600BF00BFFDE7AF
:1041F00080B500AF0421084803F090F9002106487B
:1042000003F08CF90021054803F088F904210348E4
:1042100003F084F900BF80BD84190020CC19002070
:1042200080B485B000AFF860B9601346FB80FB88AE
:10423000B3F5FA7F02D24FF4FA73FB80FB8840F6A5
:10424000C412934202D940F6C413FB80BB68002B12
:1042500004D1FB681B68FA885A6313E0BB68042B1F
:1042600004D1FB681A68FB8893630BE0BB68082BDA
:1042700004D1FB681A68FB88D36303E0FB681A6803
:10428000FB88136400BF1437BD465DF8047B70479C
:1042900080B483B000AF00237B60104B5B6C0F4A8F
:1042A00043F4804353640D4B5B6C03F480437B60A9
:1042B0007B6800233B60094B1B6C084A43F080532A
:1042C0001364064B1B6C03F080533B603B6800BFDC
:1042D0000C37BD465DF8047B704700BF00380240D4
:1042E00080B400AF00BFFDE780B400AF00BFFDE7C2
:1042F00080B400AF00BFFDE780B400AF00BFFDE7B2
:1043000080B400AF00BFFDE780B400AF00BFBD4682
:104310005DF8047B704780B400AF00BFBD465DF818
:10432000047B704780B400AF00BFBD465DF8047BDE
:10433000704780B500AF01F0E1F800BF80BD00001C
:1043400080B500AF024801F093FF00BF80BD00BF01
:104350004C1E002080B500AF024801F089FF00BF6D
:1043600080BD00BFAC1E002080B500AF024804F045
:1043700065F800BF80BD00BFFC1C002080B500AF09
:10438000024801F075FF00BF80BD00BF8C1D0020FA
:1043900080B500AF024801F06BFF00BF80BD00BFD9
:1043A000EC1D002080B582B000AF134B1B681B686A
:1043B00003F01003102B18D100233B600E4B1B6839
:1043C0001B683B600C4B1B685B683B603B680A4B9F
:1043D000DB6B1B685B68FB80FB88C3F180039AB2D0
:1043E000064B1A80064B01221A70034804F026F887
:1043F00000BF0837BD4680BD441D0020741C00204E
:10440000761C002080B400AF01231846BD465DF83D
:10441000047B704780B582B000AF7860396006F0E9
:10442000A3F9034616221A604FF0FF3318460837E7
:10443000BD4680BD80B582B000AF78604FF0FF31DF
:104440007868FFF7E7FF00BFFDE780B586B000AFF3
:10445000F860B9607A6000237B610AE0AFF3008006
:104460000146BB685A1CBA60CAB21A707B69013334
:104470007B617A697B689A42F0DB7B681846183763
:10448000BD4680BD80B586B000AFF860B9607A6087
:1044900000237B6109E0BB685A1CBA601B78184690
:1044A000AFF300807B6901337B617A697B689A4254
:1044B000F1DB7B6818461837BD4680BD80B483B0F9
:1044C00000AF78604FF0FF3318460C37BD465DF8FB
:1044D000047B704780B483B000AF786039603B687C
:1044E0004FF400525A60002318460C37BD465DF861
:1044F000047B704780B483B000AF78600123184616
:104500000C37BD465DF8047B704780B485B000AFC2
:10451000F860B9607A60002318461437BD465DF82C
:10452000047B704780B586B000AF7860144A154BA5
:10453000D31A7B617B693B61134B1B68002B02D153
:10454000114B124A1A60104B1A687B6813443A697F
:104550009A4207D206F008F903460C221A604FF07F
:10456000FF3309E0084B1B68FB60074B1A687B6848
:104570001344054A1360FB6818461837BD4680BDD2
:104580000000022000040000F0180020602000203D
:1045900080B400AF064BD3F88830054A43F470036B
:1045A000C2F8883000BFBD465DF8047B704700BF8D
:1045B00000ED00E080B596B000AF07F1480300229F
:1045C0001A605A609A60DA6007F1400300221A60AC
:1045D0005A6007F1240300221A605A609A60DA6078
:1045E0001A615A619A613B1D20220021184606F08B
:1045F0000DF8424B424A1A60404B00225A603F4B32
:1046000000229A603D4B2222DA603C4B00221A6164
:104610003A4B00225A61394B00229A61374802F026
:10462000DFFE0346002B01D0FFF7DCFD4FF4805383
:10463000BB6407F148031946304803F0F9F8034614
:10464000002B01D0FFF7CEFD2C4802F018FF0346E7
:10465000002B01D0FFF7C6FD00233B6400237B64E1
:1046600007F140031946254803F0C0FC0346002B20
:1046700001D0FFF7B7FD60237B620023BB620023FC
:10468000FB6200233B6300237B630023BB630023A7
:10469000FB6307F1240300221946184803F006F8CB
:1046A0000346002B01D0FFF79DFD07F124030822EC
:1046B0001946124802F0FAFF0346002B01D0FFF71B
:1046C00091FD00237B600023BB600023FB6000237F
:1046D0003B6100237B614FF40053BB6100233B62CD
:1046E0003B1D1946054803F0FDFC0346002B01D095
:1046F000FFF778FD00BF5837BD4680BDF418002095
:104700000000014080B586B000AF07F10803002229
:104710001A605A609A60DA603B4600221A605A605A
:104720001E4B1F4A1A601D4B00225A601B4B002271
:104730009A601A4B2222DA60184B00221A61174B3A
:1047400000225A61154B00229A61144802F048FE7B
:104750000346002B01D0FFF745FD4FF48053BB60AB
:1047600007F1080319460D4803F062F80346002BD1
:1047700001D0FFF737FD00233B6000237B603B4601
:104780001946064803F032FC0346002B01D0FFF720
:1047900029FD00BF1837BD4680BD00BF3C19002071
:1047A0000004014080B58CB000AF07F12003002267
:1047B0001A605A609A60DA603B1D00221A605A60E3
:1047C0009A60DA601A615A619A612B4B2B4A1A601F
:1047D000294BA7225A60284B00229A60264B44F6A8
:1047E0001F62DA60244B00221A61234B00229A6177
:1047F000214802F0F5FD0346002B01D0FFF7F2FC43
:104800004FF480533B6207F1200319461A4803F026
:104810000FF80346002B01D0FFF7E4FC164802F026
:104820002EFE0346002B01D0FFF7DCFC60237B60EB
:104830000023BB600023FB6000237B613B1D002243
:1048400019460D4802F032FF0346002B01D0FFF756
:10485000C9FC3B1D04221946074802F027FF034606
:10486000002B01D0FFF7BEFC034800F0DFF900BFCA
:104870003037BD4680BD00BF841900200040014094
:1048800080B588B000AF3B1D00221A605A609A6064
:10489000DA601A615A619A611F4B204A1A601E4BF6
:1048A000A7225A601C4B00229A601B4B41F28732B0
:1048B000DA60194B00221A61174B00229A611648E0
:1048C00002F0DDFD0346002B01D0FFF78BFC6023D7
:1048D0007B600023BB600023FB6000237B613B1DEA
:1048E000002219460C4802F0E1FE0346002B01D0DD
:1048F000FFF778FC3B1D04221946074802F0D6FE5C
:104900000346002B01D0FFF76DFC034800F08EF941
:1049100000BF2037BD4680BDCC19002000180040E4
:1049200080B586B000AF78607B681B68934A93427D
:1049300040F0DF8000237B61914B5B6C904A43F039
:10494000010353648E4B5B6C03F001037B617B6955
:104950008C4B8D4A1A608B4B4FF040625A60894BEA
:1049600000229A60874B0022DA60864B4FF4806207
:104970001A61844B4FF480525A61824B4FF480424B
:104980009A61804B0022DA617E4B4FF440321A620A
:104990007C4B00225A627B4801F0D2FA0346002B7E
:1049A00001D0FFF71FFC7B68764A1A62754A7B6864
:1049B0009363764B764A1A60744B4FF040625A60AC
:1049C000724B00229A60714B0022DA606F4B4FF4F9
:1049D00080621A616D4B4FF480525A616B4B4FF4F9
:1049E00080429A61694B0022DA61684B4FF4403291
:1049F0001A62664B00225A62644801F0A1FA03462B
:104A0000002B01D0FFF7EEFB7B68604A1A635F4A18
:104A10007B6893637B685D4A9A635C4A7B689363B7
:104A20007B685A4A5A63594A7B689363594B5A4A7E
:104A30001A60584B4FF040625A60564B00229A6001
:104A4000544B0022DA60534B4FF480621A61514B91
:104A50004FF480525A614F4B4FF480429A614D4B54
:104A60000022DA614B4B4FF440321A62494B00226C
:104A70005A62484801F064FA0346002B01D0FFF760
:104A8000B1FB7B68434A5A62424A7B689363434B5B
:104A9000434A1A60414B4FF040625A603F4B00223C
:104AA0009A603E4B0022DA603C4B4FF480621A6100
:104AB0003A4B4FF480525A61384B4FF480429A611E
:104AC000364B0022DA61354B4FF440321A62334BD9
:104AD00000225A62314801F033FA0346002B01D01C
:104AE000FFF780FB7B682D4ADA622C4A7B68936370
:104AF00071E07B681B682B4A934259D100233B61CC
:104B00001F4B5B6C1E4A43F0020353641C4B5B6CEF
:104B100003F002033B613B69234B244A1A60224B9A
:104B20004FF060625A60204B00229A601E4B0022B8
:104B3000DA601D4B4FF480621A611B4B4FF48052B8
:104B40005A61194B4FF480429A61174B0022DA6187
:104B5000154B4FF440321A62134B00225A6212482E
:104B600001F0EEF90346002B01D0FFF73BFB7B6819
:104B70000D4A1A620C4A7B6893632CE000000140E6
:104B800000380240141A002088640240741A002081
:104B900070640240D41A002058640240341B002084
:104BA000A064024000040140941B002028640240DD
:104BB0007B681B680A4A93420DD10023FB60094BB6
:104BC0005B6C084A43F480335364064B5B6C03F41C
:104BD0008033FB60FB6800BF1837BD4680BD00BF57
:104BE000004001400038024080B485B000AF7860DA
:104BF0007B681B680B4A93420DD10023FB600A4B74
:104C00001B6C094A43F040031364074B1B6C03F011
:104C10004003FB60FB6800BF1437BD465DF8047BB2
:104C2000704700BF001800400038024080B58AB0CD
:104C300000AF786007F1140300221A605A609A608E
:104C4000DA601A617B681B68244A93421ED10023F4
:104C50003B61234B1B6B224A43F010031363204B31
:104C60001B6B03F010033B613B6960237B610223F4
:104C7000BB610023FB6100233B6203237B6207F1DE
:104C800014031946174801F05DFD23E07B681B689B
:104C9000154A93421ED10023FB60114B1B6B104A37
:104CA00043F0020313630E4B1B6B03F00203FB6024
:104CB000FB684FF440437B610223BB610023FB612F
:104CC00000233B6209237B6207F11403194607485E
:104CD00001F038FD00BF2837BD4680BD00400140CF
:104CE000003802400010024000180040000402405A
:104CF00080B582B000AF786080220849786803F000
:104D00001EFB7B681B68DA687B681B6842F0100238
:104D1000DA6000BF0837BD4680BD00BFF41B00202D
:104D20000FB480B584B000AF174B1B7807F11C039C
:104D30007B607B68BA698021144805F059FCF860F3
:104D4000FB68002B18DDFB687F2B15DC0E4B012266
:104D50001A70FB689AB20A230C490D4803F064FAF2
:104D60000346FB72FB7A002B03D0074B00221A701C
:104D700002E0054B00221A7000BF1037BD46BDE8A7
:104D8000804004B0704700BF771C0020781C0020D2
:104D9000441D002090B5ABB000AFAF4B1B88A7F807
:104DA0009630AE4B1B88B7F896209A4207D3AB4B90
:104DB0001B88B7F89620D31AA7F8A63008E0A74BAF
:104DC0001B88B7F89620D31A9BB28033A7F8A63079
:104DD000A34B00221A70B7F8A630002B00F03781E1
:104DE0009E4B1B88B7F896209A420CD39B4B1B888E
:104DF0001A469C4BD118B7F8A62007F10C031846A9
:104E000005F0DFFC1CE0954B1B881A46954BD1182A
:104E1000924B1B88C3F180031A4607F10C03184616
:104E200005F0CFFC8D4B1B88C3F180031A4607F1B8
:104E30000C031344B7F896208A49184605F0C1FCC4
:104E4000B7F8A630A8333B44002203F89C2C834AD1
:104E5000B7F89630138007F10C038349184605F024
:104E6000DDFBC7F8A000ECE0D7F8A0300133C7F8AD
:104E7000A030D7F8A0301B78202BF5D0D7F8A03081
:104E80001B78092BF0D0D7F8A000FBF701FAC7F880
:104E90009C000BE0D7F89C30013BC7F89C30D7F85A
:104EA000A020D7F89C30134400221A70D7F89C3009
:104EB000002B11D0D7F89C30013BD7F8A020134429
:104EC0001B78202BE6D0D7F89C30013BD7F8A020E8
:104ED00013441B78092BDDD0D7F89C30002B06D16A
:104EE0006149002005F09AFBC7F8A000A9E05F49DE
:104EF000D7F8A000FBF76CF90346002B28D100235C
:104F0000C7F898300CE05A4AD7F898309B00134401
:104F10004FF000021A60D7F898300133C7F8983084
:104F2000D7F89830092BEED9524B40F2DC52DA8098
:104F3000504BDA884F4B9A804E4B9A884D4B5A8093
:104F40004C4B5A884B4B1A804B48FFF7E9FE72E0F6
:104F50003B1D07F108024949D7F8A00005F0A8FA5F
:104F6000C7F89000D7F89030022B61D1BB68092BAD
:104F70001CD8D7ED017AF0EEE77A9FED417AF4EE96
:104F8000C77AF1EE10FA56D8BB687A6838499B00A8
:104F90000B441A60BC687B681846FBF7E5FA0246CA
:104FA0000B4621463748FFF7BBFE44E0BB68092BA0
:104FB00038D9BB680D2B35D8D7ED017A9FED327A01
:104FC000F4EEC77AF1EE10FA22DBD7ED017A9FED0D
:104FD0002F7AF4EEC77AF1EE10FA19D8D7ED017AEC
:104FE000BB680A3BFCEEE77A17EE902A91B2214AA1
:104FF00022F81310BB68A3F109047B681846FBF77D
:10500000B3FA02460B4621462148FFF789FE12E01B
:105010007B681846FBF7A8FA02460B461D48FFF7C7
:105020007FFE08E0BB6819461B48FFF779FE02E0E7
:105030001A48FFF775FE0C49002005F0EFFAC7F893
:10504000A000D7F8A030002B7FF413AF00E000BF22
:10505000AC37BD4690BD00BF741C0020F81C00207A
:10506000761C0020F41B0020ECE60008F0E60008A7
:10507000BC18002018000020F8E6000810E700081F
:1050800000401C4618E700080000FA4300401C4599
:1050900030E7000848E700086CE700088CE70008E4
:1050A00080B500AF114B124A1A60104B4FF4E13239
:1050B0005A600E4B00229A600C4B0022DA600B4BB8
:1050C00000221A61094B0C225A61084B00229A6196
:1050D000064B0022DA61054803F056F80346002B20
:1050E00001D0FFF77FF800BF80BD00BFFC1C00208F
:1050F0000010014080B500AF114B124A1A60104BEE
:105100004FF4E1325A600E4B00229A600C4B0022A1
:10511000DA600B4B00221A61094B0C225A61084BD2
:1051200000229A61064B0022DA61054803F02CF850
:105130000346002B01D0FFF755F800BF80BD00BF2C
:10514000441D00200044004080B58CB000AF786062
:1051500007F11C0300221A605A609A60DA601A6133
:105160007B681B689A4A934240F095800023BB619C
:10517000984B5B6C974A43F010035364954B5B6C00
:1051800003F01003BB61BB6900237B61914B1B6B78
:10519000904A43F0010313638E4B1B6B03F0010332
:1051A0007B617B694FF4C063FB6102233B62002398
:1051B0007B620323BB620723FB6207F11C031946D2
:1051C000854801F0BFFA854B854A1A60834B4FF042
:1051D00000625A60814B00229A60804B0022DA60A4
:1051E0007E4B4FF480621A617C4B00225A617B4BEC
:1051F00000229A61794B4FF48072DA61774B4FF459
:1052000000321A62754B00225A62744800F098FE10
:105210000346002B01D0FEF7E5FF7B686F4ADA6397
:105220006E4A7B6893636F4B6F4A1A606D4B4FF009
:1052300000625A606B4B40229A606A4B0022DA602F
:10524000684B4FF480621A61664B00225A61654BCD
:1052500000229A61634B0022DA61624B4FF4003204
:105260001A62604B00225A625E4800F069FE0346F3
:10527000002B01D0FEF7B6FF7B685A4A9A63594A61
:105280007B68936300220021252000F022FE252068
:1052900000F03BFE97E07B681B68544A934240F065
:1052A000928000233B614B4B1B6C4A4A43F4003312
:1052B0001364484B1B6C03F400333B613B690023D0
:1052C000FB60444B1B6B434A43F008031363414BA1
:1052D0001B6B03F00803FB60FB686023FB61022388
:1052E0003B6200237B620323BB620723FB6207F15F
:1052F0001C0319463E4801F025FA3E4B3E4A1A600F
:105300003C4B4FF000625A603A4B00229A60394B96
:105310000022DA60374B4FF480621A61354B00226D
:105320005A61344B00229A61324B0022DA61314BD0
:105330004FF400321A622F4B00225A622D4800F0BF
:10534000FFFD0346002B01D0FEF74CFF7B68294A86
:10535000DA63284A7B689363284B294A1A60274BF3
:105360004FF000625A60254B40229A60234B002286
:10537000DA60224B4FF480621A61204B00225A619E
:105380001E4B00229A611D4B0022DA611B4B4FF429
:1053900000321A62194B00225A62184800F0D0FD00
:1053A0000346002B01D0FEF71DFF7B68134A9A636A
:1053B000124A7B68936300220021262000F089FDB9
:1053C000262000F0A2FD00BF3037BD4680BD00BFE3
:1053D0000010014000380240000002408C1D0020F7
:1053E00040640240EC1D0020B864024000440040CC
:1053F000000C02404C1E002088600240AC1E0020C1
:10540000A0600240DFF834D0FFF7C2F80C480D4925
:105410000D4A002302E0D458C4500433C4188C420F
:10542000F9D30A4A0A4C002301E013600432A24275
:10543000FBD305F09FF9FEF797FC704700000220B0
:1054400000000020F401002024ED0008F4010020F9
:105450005C200020FEE7000080B500AF0E4B1B680B
:105460000D4A43F4007313600B4B1B680A4A43F464
:1054700080631360084B1B68074A43F48073136012
:10548000032000F01BFD0F2000F008F8FEF700FFDE
:105490000023184680BD00BF003C024080B582B0AA
:1054A00000AF7860124B1A68124B1B7819464FF404
:1054B0007A73B3FBF1F3B2FBF3F3184600F033FD5C
:1054C0000346002B01D001230EE07B680F2B0AD886
:1054D000002279684FF0FF3000F0FBFC064A7B6841
:1054E0001360002300E0012318460837BD4680BD45
:1054F00020000020280000202400002080B400AFFD
:10550000064B1B781A46064B1B681344044A13606B
:1055100000BFBD465DF8047B704700BF2800002037
:105520000C1F002080B400AF034B1B681846BD461B
:105530005DF8047B704700BF0C1F002080B584B06D
:1055400000AF7860FFF7EEFFB8607B68FB60FB6838
:10555000B3F1FF3F05D00A4B1B781A46FB68134492
:10556000FB6000BFFFF7DEFF0246BB68D31AFA6894
:105570009A42F7D800BF00BF1037BD4680BD00BFBC
:105580002800002080B584B000AF78600023FB7352
:105590007B68002B01D1012333E07B681B6C002B5F
:1055A00009D17868FBF79EFD7B6800225A647B680E
:1055B000002283F83C207B681B6C03F01003002B57
:1055C00018D17B681B6C23F4885323F0020343F04B
:1055D00002027B681A64786800F0A4FA7B680022F3
:1055E0005A647B681B6C23F0030343F001027B6861
:1055F0001A6401E00123FB737B68002283F83C20DE
:10560000FB7B18461037BD4680BD000080B485B0D6
:1056100000AF78600023BB607B6893F83C30012BBF
:1056200001D10223B2E07B68012283F83C207B6831
:105630001B689B6803F00103012B18D07B681B6873
:105640009A687B681B6842F001029A60524B1B68A3
:10565000524AA2FB03239A0C13465B001344BB601F
:1056600002E0BB68013BBB60BB68002BF9D17B68E3
:105670001B689B6803F00103012B7AD17B681B6CCC
:1056800023F4E06323F0010343F480727B681A641F
:105690007B681B685B6803F48063002B07D07B6822
:1056A0001B6C23F4405343F480527B681A647B687C
:1056B0001B6C03F48053B3F5805F06D17B685B6C91
:1056C00023F006027B685A6402E07B6800225A6479
:1056D0007B68002283F83C20314BFB607B681B68B1
:1056E0006FF022021A60FB685B6803F01F03002B57
:1056F0002AD17B681B682B4A934215D07B681B68B4
:10570000294A934205D1264B5B6803F01F03002B07
:105710000AD07B681B68254A934236D1204B5B68D0
:1057200003F01003002B30D17B681B689B6803F0EB
:105730004053002B29D17B681B689A687B681B68E3
:1057400042F080429A6020E07B681B68154A9342D1
:105750001BD17B681B689B6803F04053002B14D15E
:105760007B681B689A687B681B6842F080429A607D
:105770000BE07B681B6C43F010027B681A647B684B
:105780005B6C43F001027B685A64002318461437AF
:10579000BD465DF8047B70472000002083DE1B437C
:1057A000002301400020014000210140002201406F
:1057B00080B584B000AF786039600023FB607B68FF
:1057C0001B689B6803F48063B3F5806F13D17B681B
:1057D0001B689B6803F48073B3F5807F0BD17B68F3
:1057E0001B6C43F020027B681A647B68002283F8FC
:1057F0003C20012363E0FFF795FEF86021E03B6861
:10580000B3F1FF3F1DD03B68002B07D0FFF78AFEA6
:105810000246FB68D31A3A689A4212D27B681B6828
:105820001B6803F00203022B0BD07B681B6C43F058
:1058300004027B681A647B68002283F83C200323FF
:105840003DE07B681B681B6803F00203022BD6D186
:105850007B681B686FF012021A607B681B6C43F454
:1058600000727B681A647B681B689B6803F0405376
:10587000002B23D17B681B7E002B1FD17B681B680C
:10588000DB6A03F47003002B06D07B681B689B68FF
:1058900003F48063002B11D17B681B6C23F48072AE
:1058A0007B681A647B681B6C03F48053002B05D162
:1058B0007B681B6C43F001027B681A640023184666
:1058C0001037BD4680BD80B483B000AF78607B6880
:1058D0001B68DB6C18460C37BD465DF8047B7047CF
:1058E00080B485B000AF786039600023BB607B680E
:1058F00093F83C30012B01D1022305E17B680122A2
:1059000083F83C203B681B68092B25D97B681B6802
:10591000D9683B681B689BB21A4613465B00134468
:105920001E3B072202FA03F3DA437B681B680A4036
:10593000DA607B681B68D9683B689A683B681B68BB
:105940009BB2184603465B0003441E3B9A407B68AB
:105950001B680A43DA6022E07B681B6819693B68B0
:105960001B689BB21A4613465B001344072202FAD7
:1059700003F3DA437B681B680A401A617B681B6883
:1059800019693B689A683B681B689BB218460346D6
:105990005B0003449A407B681B680A431A613B68BA
:1059A0005B68062B24D87B681B68596B3B685A6878
:1059B00013469B001344053B1F2202FA03F3DA430C
:1059C0007B681B680A405A637B681B68596B3B689D
:1059D0001B689BB218463B685A6813469B001344E9
:1059E000053B00FA03F27B681B680A435A634CE0EC
:1059F0003B685B680C2B24D87B681B68196B3B6881
:105A00005A6813469B001344233B1F2202FA03F3F8
:105A1000DA437B681B680A401A637B681B68196B52
:105A20003B681B689BB218463B685A6813469B004C
:105A30001344233B00FA03F27B681B680A431A6392
:105A400023E07B681B68D96A3B685A6813469B0051
:105A50001344413B1F2202FA03F3DA437B681B68BD
:105A60000A40DA627B681B68D96A3B681B689BB294
:105A700018463B685A6813469B001344413B00FAA2
:105A800003F27B681B680A43DA62224BFB607B6887
:105A90001B68214A934209D13B681B68122B05D130
:105AA000FB685B6843F48002FB685A607B681B6894
:105AB000194A934223D13B681B68102B03D03B68E3
:105AC0001B68112B1BD1FB685B6843F40002FB6869
:105AD0005A603B681B68102B11D1104B1B68104A91
